{
  "contractName": "BookLibrary",
  "abi": [
    {
      "anonymous": false,
      "inputs": [
        {
          "indexed": true,
          "internalType": "address",
          "name": "previousOwner",
          "type": "address"
        },
        {
          "indexed": true,
          "internalType": "address",
          "name": "newOwner",
          "type": "address"
        }
      ],
      "name": "OwnershipTransferred",
      "type": "event"
    },
    {
      "inputs": [
        {
          "internalType": "uint256",
          "name": "",
          "type": "uint256"
        }
      ],
      "name": "booksStored",
      "outputs": [
        {
          "internalType": "string",
          "name": "id",
          "type": "string"
        },
        {
          "internalType": "uint8",
          "name": "count",
          "type": "uint8"
        },
        {
          "internalType": "bool",
          "name": "exists",
          "type": "bool"
        }
      ],
      "stateMutability": "view",
      "type": "function"
    },
    {
      "inputs": [],
      "name": "owner",
      "outputs": [
        {
          "internalType": "address",
          "name": "",
          "type": "address"
        }
      ],
      "stateMutability": "view",
      "type": "function"
    },
    {
      "inputs": [],
      "name": "renounceOwnership",
      "outputs": [],
      "stateMutability": "nonpayable",
      "type": "function"
    },
    {
      "inputs": [
        {
          "internalType": "address",
          "name": "newOwner",
          "type": "address"
        }
      ],
      "name": "transferOwnership",
      "outputs": [],
      "stateMutability": "nonpayable",
      "type": "function"
    },
    {
      "inputs": [],
      "name": "getAvailableBooks",
      "outputs": [
        {
          "components": [
            {
              "internalType": "string",
              "name": "id",
              "type": "string"
            },
            {
              "internalType": "uint8",
              "name": "count",
              "type": "uint8"
            },
            {
              "internalType": "bool",
              "name": "exists",
              "type": "bool"
            },
            {
              "internalType": "address[]",
              "name": "borrowers",
              "type": "address[]"
            }
          ],
          "internalType": "struct BookLibrary.Book[]",
          "name": "",
          "type": "tuple[]"
        }
      ],
      "stateMutability": "view",
      "type": "function"
    },
    {
      "inputs": [],
      "name": "getStoredBooks",
      "outputs": [
        {
          "components": [
            {
              "internalType": "string",
              "name": "id",
              "type": "string"
            },
            {
              "internalType": "uint8",
              "name": "count",
              "type": "uint8"
            },
            {
              "internalType": "bool",
              "name": "exists",
              "type": "bool"
            },
            {
              "internalType": "address[]",
              "name": "borrowers",
              "type": "address[]"
            }
          ],
          "internalType": "struct BookLibrary.Book[]",
          "name": "",
          "type": "tuple[]"
        }
      ],
      "stateMutability": "view",
      "type": "function"
    },
    {
      "inputs": [
        {
          "internalType": "string",
          "name": "id",
          "type": "string"
        },
        {
          "internalType": "uint8",
          "name": "count",
          "type": "uint8"
        }
      ],
      "name": "addBook",
      "outputs": [],
      "stateMutability": "nonpayable",
      "type": "function"
    },
    {
      "inputs": [
        {
          "internalType": "string",
          "name": "id",
          "type": "string"
        }
      ],
      "name": "borrowBook",
      "outputs": [],
      "stateMutability": "nonpayable",
      "type": "function"
    },
    {
      "inputs": [
        {
          "internalType": "string",
          "name": "id",
          "type": "string"
        },
        {
          "internalType": "uint8",
          "name": "count",
          "type": "uint8"
        }
      ],
      "name": "returnBook",
      "outputs": [],
      "stateMutability": "nonpayable",
      "type": "function"
    },
    {
      "inputs": [
        {
          "internalType": "string",
          "name": "id",
          "type": "string"
        }
      ],
      "name": "getBorrowers",
      "outputs": [
        {
          "internalType": "address[]",
          "name": "",
          "type": "address[]"
        }
      ],
      "stateMutability": "view",
      "type": "function"
    },
    {
      "inputs": [
        {
          "internalType": "string",
          "name": "id",
          "type": "string"
        }
      ],
      "name": "isAvailable",
      "outputs": [
        {
          "internalType": "bool",
          "name": "",
          "type": "bool"
        }
      ],
      "stateMutability": "view",
      "type": "function"
    }
  ],
  "bytecode": "0x6080604052600060015534801561001557600080fd5b5060006100266100c960201b60201c565b9050806000806101000a81548173ffffffffffffffffffffffffffffffffffffffff021916908373ffffffffffffffffffffffffffffffffffffffff1602179055508073ffffffffffffffffffffffffffffffffffffffff16600073ffffffffffffffffffffffffffffffffffffffff167f8be0079c531659141344cd1fd0a4f28419497f9722a3daafe3b4186f6b6457e060405160405180910390a3506100d1565b600033905090565b611c98806100e06000396000f3fe608060405234801561001057600080fd5b50600436106100a95760003560e01c8063965306aa11610071578063965306aa14610154578063a63ac38e14610184578063b4715352146101a0578063ced96fe3146101be578063d6c084d9146101da578063f2fde38b146101f8576100a9565b80632588b134146100ae578063582bcda5146100e0578063715018a6146101105780638da5cb5b1461011a57806394949eee14610138575b600080fd5b6100c860048036038101906100c39190611505565b610214565b6040516100d7939291906119ce565b60405180910390f35b6100fa60048036038101906100f59190611470565b6102fd565b604051610107919061196f565b60405180910390f35b6101186103e4565b005b61012261051e565b60405161012f9190611954565b60405180910390f35b610152600480360381019061014d91906114b1565b610547565b005b61016e60048036038101906101699190611470565b6106c4565b60405161017b91906119b3565b60405180910390f35b61019e600480360381019061019991906114b1565b610708565b005b6101a861099e565b6040516101b59190611991565b60405180910390f35b6101d860048036038101906101d39190611470565b610b65565b005b6101e2610da3565b6040516101ef9190611991565b60405180910390f35b610212600480360381019061020d9190611447565b611074565b005b6002818154811061022157fe5b9060005260206000209060030201600091509050806000018054600181600116156101000203166002900480601f0160208091040260200160405190810160405280929190818152602001828054600181600116156101000203166002900480156102cd5780601f106102a2576101008083540402835291602001916102cd565b820191906000526020600020905b8154815290600101906020018083116102b057829003601f168201915b5050505050908060010160009054906101000a900460ff16908060010160019054906101000a900460ff16905083565b606060038260405161030f9190611926565b908152602001604051809103902060010160019054906101000a900460ff1661033757600080fd5b6003826040516103479190611926565b90815260200160405180910390206002018054806020026020016040519081016040528092919081815260200182805480156103d857602002820191906000526020600020905b8160009054906101000a900473ffffffffffffffffffffffffffffffffffffffff1673ffffffffffffffffffffffffffffffffffffffff168152602001906001019080831161038e575b50505050509050919050565b6103ec61121d565b73ffffffffffffffffffffffffffffffffffffffff1661040a61051e565b73ffffffffffffffffffffffffffffffffffffffff1614610460576040517f08c379a000000000000000000000000000000000000000000000000000000000815260040161045790611a2c565b60405180910390fd5b600073ffffffffffffffffffffffffffffffffffffffff1660008054906101000a900473ffffffffffffffffffffffffffffffffffffffff1673ffffffffffffffffffffffffffffffffffffffff167f8be0079c531659141344cd1fd0a4f28419497f9722a3daafe3b4186f6b6457e060405160405180910390a360008060006101000a81548173ffffffffffffffffffffffffffffffffffffffff021916908373ffffffffffffffffffffffffffffffffffffffff160217905550565b60008060009054906101000a900473ffffffffffffffffffffffffffffffffffffffff16905090565b6003826040516105579190611926565b908152602001604051809103902060010160019054906101000a900460ff1661057f57600080fd5b806003836040516105909190611926565b908152602001604051809103902060010160008282829054906101000a900460ff160192506101000a81548160ff021916908360ff16021790555060005b6002805490508110156106bf57826040516020016105ec9190611926565b604051602081830303815290604052805190602001206002828154811061060f57fe5b9060005260206000209060030201600001604051602001610630919061193d565b6040516020818303038152906040528051906020012014156106b25760038360405161065c9190611926565b908152602001604051809103902060010160009054906101000a900460ff166002828154811061068857fe5b906000526020600020906003020160010160006101000a81548160ff021916908360ff1602179055505b80806001019150506105ce565b505050565b60008060006003846040516106d99190611926565b908152602001604051809103902060010160009054906101000a900460ff1660ff161415905080915050919050565b61071061121d565b73ffffffffffffffffffffffffffffffffffffffff1661072e61051e565b73ffffffffffffffffffffffffffffffffffffffff1614610784576040517f08c379a000000000000000000000000000000000000000000000000000000000815260040161077b90611a2c565b60405180910390fd5b60006003836040516107969190611926565b908152602001604051809103902060010160019054906101000a900460ff1690508061093c5760606107c6611225565b60405180608001604052808681526020018560ff16815260200160011515815260200183815250905060028190806001815401808255809150506001900390600052602060002090600302016000909190919091506000820151816000019080519060200190610837929190611252565b5060208201518160010160006101000a81548160ff021916908360ff16021790555060408201518160010160016101000a81548160ff02191690831515021790555060608201518160020190805190602001906108959291906112d2565b505050806003866040516108a99190611926565b908152602001604051809103902060008201518160000190805190602001906108d3929190611252565b5060208201518160010160006101000a81548160ff021916908360ff16021790555060408201518160010160016101000a81548160ff02191690831515021790555060608201518160020190805190602001906109319291906112d2565b509050505050610989565b8160038460405161094d9190611926565b908152602001604051809103902060010160008282829054906101000a900460ff160192506101000a81548160ff021916908360ff1602179055505b60018060008282540192505081905550505050565b60606002805480602002602001604051908101604052809291908181526020016000905b82821015610b5c5783829060005260206000209060030201604051806080016040529081600082018054600181600116156101000203166002900480601f016020809104026020016040519081016040528092919081815260200182805460018160011615610100020316600290048015610a7e5780601f10610a5357610100808354040283529160200191610a7e565b820191906000526020600020905b815481529060010190602001808311610a6157829003601f168201915b505050505081526020016001820160009054906101000a900460ff1660ff1660ff1681526020016001820160019054906101000a900460ff1615151515815260200160028201805480602002602001604051908101604052809291908181526020018280548015610b4457602002820191906000526020600020905b8160009054906101000a900473ffffffffffffffffffffffffffffffffffffffff1673ffffffffffffffffffffffffffffffffffffffff1681526020019060010190808311610afa575b505050505081525050815260200190600101906109c2565b50505050905090565b600381604051610b759190611926565b908152602001604051809103902060010160019054906101000a900460ff16610b9d57600080fd5b6000600382604051610baf9190611926565b908152602001604051809103902060010160009054906101000a900460ff1660ff161415610bdc57600080fd5b6001600382604051610bee9190611926565b908152602001604051809103902060010160008282829054906101000a900460ff160392506101000a81548160ff021916908360ff160217905550600381604051610c399190611926565b9081526020016040518091039020600201339080600181540180825580915050600190039060005260206000200160009091909190916101000a81548173ffffffffffffffffffffffffffffffffffffffff021916908373ffffffffffffffffffffffffffffffffffffffff16021790555060005b600280549050811015610d9f5781604051602001610ccc9190611926565b6040516020818303038152906040528051906020012060028281548110610cef57fe5b9060005260206000209060030201600001604051602001610d10919061193d565b604051602081830303815290604052805190602001201415610d9257600382604051610d3c9190611926565b908152602001604051809103902060010160009054906101000a900460ff1660028281548110610d6857fe5b906000526020600020906003020160010160006101000a81548160ff021916908360ff1602179055505b8080600101915050610cae565b5050565b60606000805b6001548160ff161015610e0557600060028260ff1681548110610dc857fe5b906000526020600020906003020160010160009054906101000a900460ff1660ff1614610df85781806001019250505b8080600101915050610da9565b5060608160ff1667ffffffffffffffff81118015610e2257600080fd5b50604051908082528060200260200182016040528015610e5c57816020015b610e49611225565b815260200190600190039081610e415790505b5090506000805b6001548160ff16101561106a57600060028260ff1681548110610e8257fe5b906000526020600020906003020160010160009054906101000a900460ff1660ff161461105d5760028160ff1681548110610eb957fe5b9060005260206000209060030201604051806080016040529081600082018054600181600116156101000203166002900480601f016020809104026020016040519081016040528092919081815260200182805460018160011615610100020316600290048015610f6b5780601f10610f4057610100808354040283529160200191610f6b565b820191906000526020600020905b815481529060010190602001808311610f4e57829003601f168201915b505050505081526020016001820160009054906101000a900460ff1660ff1660ff1681526020016001820160019054906101000a900460ff161515151581526020016002820180548060200260200160405190810160405280929190818152602001828054801561103157602002820191906000526020600020905b8160009054906101000a900473ffffffffffffffffffffffffffffffffffffffff1673ffffffffffffffffffffffffffffffffffffffff1681526020019060010190808311610fe7575b505050505081525050838360ff168151811061104957fe5b602002602001018190525081806001019250505b8080600101915050610e63565b5081935050505090565b61107c61121d565b73ffffffffffffffffffffffffffffffffffffffff1661109a61051e565b73ffffffffffffffffffffffffffffffffffffffff16146110f0576040517f08c379a00000000000000000000000000000000000000000000000000000000081526004016110e790611a2c565b60405180910390fd5b600073ffffffffffffffffffffffffffffffffffffffff168173ffffffffffffffffffffffffffffffffffffffff161415611160576040517f08c379a000000000000000000000000000000000000000000000000000000000815260040161115790611a0c565b60405180910390fd5b8073ffffffffffffffffffffffffffffffffffffffff1660008054906101000a900473ffffffffffffffffffffffffffffffffffffffff1673ffffffffffffffffffffffffffffffffffffffff167f8be0079c531659141344cd1fd0a4f28419497f9722a3daafe3b4186f6b6457e060405160405180910390a3806000806101000a81548173ffffffffffffffffffffffffffffffffffffffff021916908373ffffffffffffffffffffffffffffffffffffffff16021790555050565b600033905090565b604051806080016040528060608152602001600060ff168152602001600015158152602001606081525090565b828054600181600116156101000203166002900490600052602060002090601f016020900481019282601f1061129357805160ff19168380011785556112c1565b828001600101855582156112c1579182015b828111156112c05782518255916020019190600101906112a5565b5b5090506112ce919061135c565b5090565b82805482825590600052602060002090810192821561134b579160200282015b8281111561134a5782518260006101000a81548173ffffffffffffffffffffffffffffffffffffffff021916908373ffffffffffffffffffffffffffffffffffffffff160217905550916020019190600101906112f2565b5b5090506113589190611379565b5090565b5b8082111561137557600081600090555060010161135d565b5090565b5b808211156113b057600081816101000a81549073ffffffffffffffffffffffffffffffffffffffff02191690555060010161137a565b5090565b6000813590506113c381611c1d565b92915050565b600082601f8301126113da57600080fd5b81356113ed6113e882611a79565b611a4c565b9150808252602083016020830185838301111561140957600080fd5b611414838284611bca565b50505092915050565b60008135905061142c81611c34565b92915050565b60008135905061144181611c4b565b92915050565b60006020828403121561145957600080fd5b6000611467848285016113b4565b91505092915050565b60006020828403121561148257600080fd5b600082013567ffffffffffffffff81111561149c57600080fd5b6114a8848285016113c9565b91505092915050565b600080604083850312156114c457600080fd5b600083013567ffffffffffffffff8111156114de57600080fd5b6114ea858286016113c9565b92505060206114fb85828601611432565b9150509250929050565b60006020828403121561151757600080fd5b60006115258482850161141d565b91505092915050565b600061153a838361155a565b60208301905092915050565b6000611552838361189e565b905092915050565b61156381611b75565b82525050565b61157281611b75565b82525050565b600061158382611ada565b61158d8185611b15565b935061159883611aa5565b8060005b838110156115c95781516115b0888261152e565b97506115bb83611afb565b92505060018101905061159c565b5085935050505092915050565b60006115e182611ada565b6115eb8185611b26565b93506115f683611aa5565b8060005b8381101561162757815161160e888261152e565b975061161983611afb565b9250506001810190506115fa565b5085935050505092915050565b600061163f82611ae5565b6116498185611b37565b93508360208202850161165b85611ab5565b8060005b8581101561169757848403895281516116788582611546565b945061168383611b08565b925060208a0199505060018101905061165f565b50829750879550505050505092915050565b6116b281611b87565b82525050565b6116c181611b87565b82525050565b60006116d282611af0565b6116dc8185611b48565b93506116ec818560208601611bd9565b6116f581611c0c565b840191505092915050565b600061170b82611af0565b6117158185611b59565b9350611725818560208601611bd9565b61172e81611c0c565b840191505092915050565b600061174482611af0565b61174e8185611b6a565b935061175e818560208601611bd9565b80840191505092915050565b60008154600181166000811461178757600181146117ac576117f0565b607f60028304166117988187611b6a565b955060ff19831686528086019350506117f0565b600282046117ba8187611b6a565b95506117c585611ac5565b60005b828110156117e7578154818901526001820191506020810190506117c8565b82880195505050505b505092915050565b6000611805602683611b59565b91507f4f776e61626c653a206e6577206f776e657220697320746865207a65726f206160008301527f64647265737300000000000000000000000000000000000000000000000000006020830152604082019050919050565b600061186b602083611b59565b91507f4f776e61626c653a2063616c6c6572206973206e6f7420746865206f776e65726000830152602082019050919050565b600060808301600083015184820360008601526118bb82826116c7565b91505060208301516118d06020860182611908565b5060408301516118e360408601826116a9565b50606083015184820360608601526118fb8282611578565b9150508091505092915050565b61191181611bbd565b82525050565b61192081611bbd565b82525050565b60006119328284611739565b915081905092915050565b6000611949828461176a565b915081905092915050565b60006020820190506119696000830184611569565b92915050565b6000602082019050818103600083015261198981846115d6565b905092915050565b600060208201905081810360008301526119ab8184611634565b905092915050565b60006020820190506119c860008301846116b8565b92915050565b600060608201905081810360008301526119e88186611700565b90506119f76020830185611917565b611a0460408301846116b8565b949350505050565b60006020820190508181036000830152611a25816117f8565b9050919050565b60006020820190508181036000830152611a458161185e565b9050919050565b6000604051905081810181811067ffffffffffffffff82111715611a6f57600080fd5b8060405250919050565b600067ffffffffffffffff821115611a9057600080fd5b601f19601f8301169050602081019050919050565b6000819050602082019050919050565b6000819050602082019050919050565b60008190508160005260206000209050919050565b600081519050919050565b600081519050919050565b600081519050919050565b6000602082019050919050565b6000602082019050919050565b600082825260208201905092915050565b600082825260208201905092915050565b600082825260208201905092915050565b600082825260208201905092915050565b600082825260208201905092915050565b600081905092915050565b6000611b8082611b93565b9050919050565b60008115159050919050565b600073ffffffffffffffffffffffffffffffffffffffff82169050919050565b6000819050919050565b600060ff82169050919050565b82818337600083830152505050565b60005b83811015611bf7578082015181840152602081019050611bdc565b83811115611c06576000848401525b50505050565b6000601f19601f8301169050919050565b611c2681611b75565b8114611c3157600080fd5b50565b611c3d81611bb3565b8114611c4857600080fd5b50565b611c5481611bbd565b8114611c5f57600080fd5b5056fea2646970667358221220803eb43e667e05d31b697682250d2ebd7e4a5c2246c7e1995e636c42c842664964736f6c63430007000033",
  "source": "// SPDX-License-Identifier: UNLICENSED\npragma experimental ABIEncoderV2;\npragma solidity >=0.7.0;\n\nimport \"@openzeppelin/contracts/access/Ownable.sol\";\n\ncontract BookLibrary is Ownable {\n\n  struct Book {\n      string id;\n      uint8 count;\n      bool exists;\n      address[] borrowers;\n  }\n\n  uint256 booksCount = 0;\n\n  Book[] public booksStored;\n  mapping (string => Book) private books;\n\nfunction getAvailableBooks() public view returns (Book[] memory) {\n    // Count the available booksCoun\n    uint8 availableBooksCount = 0;\n    for (uint8 i = 0; i < booksCount; i++) {\n        if (booksStored[i].count != 0) {\n            availableBooksCount++;\n        }\n    }\n\n    Book[] memory dynamicMemoryArray = new Book[](availableBooksCount);\n    uint8 counter = 0;\n    for (uint8 i = 0; i < booksCount; i++) {\n        if (booksStored[i].count != 0) {\n            dynamicMemoryArray[counter] = booksStored[i];\n            counter++;\n        }\n    }\n\n    return dynamicMemoryArray;\n}\n\n  function getStoredBooks () public view returns (Book[] memory) {\n      return booksStored;\n  }\n\n  function addBook(string memory id, uint8 count) public onlyOwner {\n      bool exists = books[id].exists;\n\n      // If the book is not present in the mapping\n      if (!exists) {\n          // Create new book\n          address[] memory borrowers;\n          Book memory newBook = Book({\n              id: id,\n              count: count,\n              exists: true,\n              borrowers: borrowers\n          });\n\n          booksStored.push(newBook);\n          books[id] = newBook;\n      } else {\n          // The book is present\n          books[id].count += count;\n      }\n\n      booksCount += 1;\n  }\n\n  function borrowBook(string memory id) public {\n      require(books[id].exists);\n      require(books[id].count != 0);\n\n      books[id].count -= 1;\n      books[id].borrowers.push(msg.sender);\n\n      // Update the booksStored array\n      for (uint256 i = 0; i < booksStored.length; i++) {\n          if (keccak256(abi.encodePacked((booksStored[i].id))) == keccak256(abi.encodePacked((id)))) {\n              booksStored[i].count = books[id].count;\n          }\n      }\n  }\n\n  function returnBook(string memory id, uint8 count) public {\n      require(books[id].exists);\n      books[id].count += count;\n      // Update the booksStored array\n      for (uint256 i = 0; i < booksStored.length; i++) {\n          if (keccak256(abi.encodePacked((booksStored[i].id))) == keccak256(abi.encodePacked((id)))) {\n              booksStored[i].count = books[id].count;\n          }\n      }\n  }\n\n  function getBorrowers(string memory id) public view returns (address[] memory) {\n      require(books[id].exists);\n\n      return books[id].borrowers;\n  }\n\n    function isAvailable(string memory id) public view returns (bool) {\n    bool available = books[id].count != 0;\n    return available;\n    }\n}",
  "sourcePath": "/Users/steriostaskudis/Desktop/Training path/books-solidity/contracts/BookLibrary.sol",
  "compiler": {
    "name": "solc",
    "version": "0.7.0+commit.9e61f92b.Emscripten.clang",
    "optimizer": false,
    "runs": 200
  },
  "schemaVersion": "2.3.5",
  "updatedAt": "2021-06-01T14:35:17.442Z"
}