{
  "contractName": "BookLibrary",
  "abi": [
    {
      "inputs": [
        {
          "internalType": "address",
          "name": "LIBTokenAddress",
          "type": "address"
        },
        {
          "internalType": "address payable",
          "name": "LIBWrapperAddress",
          "type": "address"
        }
      ],
      "stateMutability": "nonpayable",
      "type": "constructor"
    },
    {
      "anonymous": false,
      "inputs": [
        {
          "indexed": false,
          "internalType": "string",
          "name": "name",
          "type": "string"
        }
      ],
      "name": "BookAdded",
      "type": "event"
    },
    {
      "anonymous": false,
      "inputs": [
        {
          "indexed": false,
          "internalType": "string",
          "name": "name",
          "type": "string"
        }
      ],
      "name": "BookBorrowed",
      "type": "event"
    },
    {
      "anonymous": false,
      "inputs": [
        {
          "indexed": false,
          "internalType": "string",
          "name": "name",
          "type": "string"
        }
      ],
      "name": "BookReturned",
      "type": "event"
    },
    {
      "anonymous": false,
      "inputs": [
        {
          "indexed": true,
          "internalType": "address",
          "name": "previousOwner",
          "type": "address"
        },
        {
          "indexed": true,
          "internalType": "address",
          "name": "newOwner",
          "type": "address"
        }
      ],
      "name": "OwnershipTransferred",
      "type": "event"
    },
    {
      "inputs": [],
      "name": "LIBToken",
      "outputs": [
        {
          "internalType": "contract IERC20",
          "name": "",
          "type": "address"
        }
      ],
      "stateMutability": "view",
      "type": "function"
    },
    {
      "inputs": [],
      "name": "LIBWrapperContract",
      "outputs": [
        {
          "internalType": "contract LIBWrapper",
          "name": "",
          "type": "address"
        }
      ],
      "stateMutability": "view",
      "type": "function"
    },
    {
      "inputs": [
        {
          "internalType": "uint256",
          "name": "",
          "type": "uint256"
        }
      ],
      "name": "booksStored",
      "outputs": [
        {
          "internalType": "string",
          "name": "id",
          "type": "string"
        },
        {
          "internalType": "uint8",
          "name": "count",
          "type": "uint8"
        },
        {
          "internalType": "bool",
          "name": "exists",
          "type": "bool"
        }
      ],
      "stateMutability": "view",
      "type": "function"
    },
    {
      "inputs": [],
      "name": "owner",
      "outputs": [
        {
          "internalType": "address",
          "name": "",
          "type": "address"
        }
      ],
      "stateMutability": "view",
      "type": "function"
    },
    {
      "inputs": [],
      "name": "renounceOwnership",
      "outputs": [],
      "stateMutability": "nonpayable",
      "type": "function"
    },
    {
      "inputs": [],
      "name": "rent",
      "outputs": [
        {
          "internalType": "uint256",
          "name": "",
          "type": "uint256"
        }
      ],
      "stateMutability": "view",
      "type": "function"
    },
    {
      "inputs": [
        {
          "internalType": "address",
          "name": "newOwner",
          "type": "address"
        }
      ],
      "name": "transferOwnership",
      "outputs": [],
      "stateMutability": "nonpayable",
      "type": "function"
    },
    {
      "inputs": [],
      "name": "wrapperAddress",
      "outputs": [
        {
          "internalType": "address payable",
          "name": "",
          "type": "address"
        }
      ],
      "stateMutability": "view",
      "type": "function"
    },
    {
      "stateMutability": "payable",
      "type": "receive"
    },
    {
      "inputs": [],
      "name": "getAvailableBooks",
      "outputs": [
        {
          "components": [
            {
              "internalType": "string",
              "name": "id",
              "type": "string"
            },
            {
              "internalType": "uint8",
              "name": "count",
              "type": "uint8"
            },
            {
              "internalType": "bool",
              "name": "exists",
              "type": "bool"
            },
            {
              "internalType": "address[]",
              "name": "borrowers",
              "type": "address[]"
            }
          ],
          "internalType": "struct BookLibrary.Book[]",
          "name": "",
          "type": "tuple[]"
        }
      ],
      "stateMutability": "view",
      "type": "function"
    },
    {
      "inputs": [],
      "name": "getStoredBooks",
      "outputs": [
        {
          "components": [
            {
              "internalType": "string",
              "name": "id",
              "type": "string"
            },
            {
              "internalType": "uint8",
              "name": "count",
              "type": "uint8"
            },
            {
              "internalType": "bool",
              "name": "exists",
              "type": "bool"
            },
            {
              "internalType": "address[]",
              "name": "borrowers",
              "type": "address[]"
            }
          ],
          "internalType": "struct BookLibrary.Book[]",
          "name": "",
          "type": "tuple[]"
        }
      ],
      "stateMutability": "view",
      "type": "function"
    },
    {
      "inputs": [
        {
          "internalType": "string",
          "name": "id",
          "type": "string"
        }
      ],
      "name": "getBorrowers",
      "outputs": [
        {
          "internalType": "address[]",
          "name": "",
          "type": "address[]"
        }
      ],
      "stateMutability": "view",
      "type": "function"
    },
    {
      "inputs": [
        {
          "internalType": "string",
          "name": "id",
          "type": "string"
        },
        {
          "internalType": "uint8",
          "name": "count",
          "type": "uint8"
        }
      ],
      "name": "addBook",
      "outputs": [],
      "stateMutability": "nonpayable",
      "type": "function"
    },
    {
      "inputs": [
        {
          "internalType": "string",
          "name": "id",
          "type": "string"
        }
      ],
      "name": "borrowBook",
      "outputs": [],
      "stateMutability": "nonpayable",
      "type": "function"
    },
    {
      "inputs": [],
      "name": "withdrawLibraryAmount",
      "outputs": [],
      "stateMutability": "nonpayable",
      "type": "function"
    },
    {
      "inputs": [
        {
          "internalType": "string",
          "name": "id",
          "type": "string"
        },
        {
          "internalType": "uint8",
          "name": "count",
          "type": "uint8"
        }
      ],
      "name": "returnBook",
      "outputs": [],
      "stateMutability": "nonpayable",
      "type": "function"
    },
    {
      "inputs": [
        {
          "internalType": "string",
          "name": "id",
          "type": "string"
        }
      ],
      "name": "isAvailable",
      "outputs": [
        {
          "internalType": "bool",
          "name": "",
          "type": "bool"
        }
      ],
      "stateMutability": "view",
      "type": "function"
    },
    {
      "inputs": [
        {
          "internalType": "string",
          "name": "id",
          "type": "string"
        }
      ],
      "name": "isRented",
      "outputs": [
        {
          "internalType": "bool",
          "name": "",
          "type": "bool"
        }
      ],
      "stateMutability": "view",
      "type": "function"
    }
  ],
  "bytecode": "0x608060405264e8d4a5100060045560006005553480156200001f57600080fd5b50604051620032f9380380620032f98339818101604052810190620000459190620001f6565b600062000057620001c060201b60201c565b9050806000806101000a81548173ffffffffffffffffffffffffffffffffffffffff021916908373ffffffffffffffffffffffffffffffffffffffff1602179055508073ffffffffffffffffffffffffffffffffffffffff16600073ffffffffffffffffffffffffffffffffffffffff167f8be0079c531659141344cd1fd0a4f28419497f9722a3daafe3b4186f6b6457e060405160405180910390a35081600160006101000a81548173ffffffffffffffffffffffffffffffffffffffff021916908373ffffffffffffffffffffffffffffffffffffffff16021790555080600260006101000a81548173ffffffffffffffffffffffffffffffffffffffff021916908373ffffffffffffffffffffffffffffffffffffffff16021790555080600360006101000a81548173ffffffffffffffffffffffffffffffffffffffff021916908373ffffffffffffffffffffffffffffffffffffffff1602179055505050620002b3565b600033905090565b600081519050620001d9816200027f565b92915050565b600081519050620001f08162000299565b92915050565b600080604083850312156200020a57600080fd5b60006200021a85828601620001c8565b92505060206200022d85828601620001df565b9150509250929050565b600062000244826200025f565b9050919050565b600062000258826200025f565b9050919050565b600073ffffffffffffffffffffffffffffffffffffffff82169050919050565b6200028a8162000237565b81146200029657600080fd5b50565b620002a4816200024b565b8114620002b057600080fd5b50565b61303680620002c36000396000f3fe6080604052600436106101025760003560e01c8063965306aa11610095578063bddb56b411610064578063bddb56b414610344578063ced96fe31461035b578063d6c084d914610384578063f2ddbb7f146103af578063f2fde38b146103da57610109565b8063965306aa14610276578063a034d084146102b3578063a63ac38e146102f0578063b47153521461031957610109565b80637df8b802116100d15780637df8b802146101cc57806382996d9f146101f75780638da5cb5b1461022257806394949eee1461024d57610109565b80631ba3192b1461010e5780632588b13414610139578063582bcda514610178578063715018a6146101b557610109565b3661010957005b600080fd5b34801561011a57600080fd5b50610123610403565b6040516101309190612b42565b60405180910390f35b34801561014557600080fd5b50610160600480360381019061015b91906122d9565b610429565b60405161016f93929190612b9a565b60405180910390f35b34801561018457600080fd5b5061019f600480360381019061019a9190612244565b610515565b6040516101ac9190612ae3565b60405180910390f35b3480156101c157600080fd5b506101ca610632565b005b3480156101d857600080fd5b506101e161079f565b6040516101ee9190612a76565b60405180910390f35b34801561020357600080fd5b5061020c6107c5565b6040516102199190612cf8565b60405180910390f35b34801561022e57600080fd5b506102376107cb565b6040516102449190612a40565b60405180910390f35b34801561025957600080fd5b50610274600480360381019061026f9190612285565b6107f4565b005b34801561028257600080fd5b5061029d60048036038101906102989190612244565b610b00565b6040516102aa9190612b27565b60405180910390f35b3480156102bf57600080fd5b506102da60048036038101906102d59190612244565b610b3e565b6040516102e79190612b27565b60405180910390f35b3480156102fc57600080fd5b5061031760048036038101906103129190612285565b610bb0565b005b34801561032557600080fd5b5061032e610fad565b60405161033b9190612b05565b60405180910390f35b34801561035057600080fd5b50610359611174565b005b34801561036757600080fd5b50610382600480360381019061037d9190612244565b611434565b005b34801561039057600080fd5b50610399611a4a565b6040516103a69190612b05565b60405180910390f35b3480156103bb57600080fd5b506103c4611d61565b6040516103d19190612b5d565b60405180910390f35b3480156103e657600080fd5b5061040160048036038101906103fc91906121f2565b611d87565b005b600160009054906101000a900473ffffffffffffffffffffffffffffffffffffffff1681565b6006818154811061043957600080fd5b9060005260206000209060030201600091509050806000018054600181600116156101000203166002900480601f0160208091040260200160405190810160405280929190818152602001828054600181600116156101000203166002900480156104e55780601f106104ba576101008083540402835291602001916104e5565b820191906000526020600020905b8154815290600101906020018083116104c857829003601f168201915b5050505050908060010160009054906101000a900460ff16908060010160019054906101000a900460ff16905083565b60606007826040516105279190612a12565b908152602001604051809103902060010160019054906101000a900460ff16610585576040517f08c379a000000000000000000000000000000000000000000000000000000000815260040161057c90612c38565b60405180910390fd5b6007826040516105959190612a12565b908152602001604051809103902060020180548060200260200160405190810160405280929190818152602001828054801561062657602002820191906000526020600020905b8160009054906101000a900473ffffffffffffffffffffffffffffffffffffffff1673ffffffffffffffffffffffffffffffffffffffff16815260200190600101908083116105dc575b50505050509050919050565b61063a611f79565b73ffffffffffffffffffffffffffffffffffffffff166106586107cb565b73ffffffffffffffffffffffffffffffffffffffff16146106e1576040517f08c379a00000000000000000000000000000000000000000000000000000000081526004018080602001828103825260208152602001807f4f776e61626c653a2063616c6c6572206973206e6f7420746865206f776e657281525060200191505060405180910390fd5b600073ffffffffffffffffffffffffffffffffffffffff1660008054906101000a900473ffffffffffffffffffffffffffffffffffffffff1673ffffffffffffffffffffffffffffffffffffffff167f8be0079c531659141344cd1fd0a4f28419497f9722a3daafe3b4186f6b6457e060405160405180910390a360008060006101000a81548173ffffffffffffffffffffffffffffffffffffffff021916908373ffffffffffffffffffffffffffffffffffffffff160217905550565b600360009054906101000a900473ffffffffffffffffffffffffffffffffffffffff1681565b60045481565b60008060009054906101000a900473ffffffffffffffffffffffffffffffffffffffff16905090565b6007826040516108049190612a12565b908152602001604051809103902060010160019054906101000a900460ff16610862576040517f08c379a000000000000000000000000000000000000000000000000000000000815260040161085990612c18565b60405180910390fd5b600860003373ffffffffffffffffffffffffffffffffffffffff1673ffffffffffffffffffffffffffffffffffffffff168152602001908152602001600020826040516108af9190612a12565b908152602001604051809103902060009054906101000a900460ff1661090a576040517f08c379a000000000000000000000000000000000000000000000000000000000815260040161090190612cd8565b60405180910390fd5b8060078360405161091b9190612a12565b908152602001604051809103902060010160008282829054906101000a900460ff160192506101000a81548160ff021916908360ff16021790555060005b600680549050811015610a5057826040516020016109779190612a12565b604051602081830303815290604052805190602001206006828154811061099a57fe5b90600052602060002090600302016000016040516020016109bb9190612a29565b604051602081830303815290604052805190602001201415610a43576000600682815481106109e657fe5b90600052602060002090600302019050600784604051610a069190612a12565b908152602001604051809103902060010160009054906101000a900460ff168160010160006101000a81548160ff021916908360ff160217905550505b8080600101915050610959565b506000600860003373ffffffffffffffffffffffffffffffffffffffff1673ffffffffffffffffffffffffffffffffffffffff16815260200190815260200160002083604051610aa09190612a12565b908152602001604051809103902060006101000a81548160ff0219169083151502179055507f1a467d925cbd35155a7cdd05f9207ad929a02ffb3292ece4d3291a4359f6c83c82604051610af49190612b78565b60405180910390a15050565b600080600783604051610b139190612a12565b908152602001604051809103902060010160009054906101000a900460ff1660ff1614159050919050565b6000600860003373ffffffffffffffffffffffffffffffffffffffff1673ffffffffffffffffffffffffffffffffffffffff16815260200190815260200160002082604051610b8d9190612a12565b908152602001604051809103902060009054906101000a900460ff169050919050565b610bb8611f79565b73ffffffffffffffffffffffffffffffffffffffff16610bd66107cb565b73ffffffffffffffffffffffffffffffffffffffff1614610c5f576040517f08c379a00000000000000000000000000000000000000000000000000000000081526004018080602001828103825260208152602001807f4f776e61626c653a2063616c6c6572206973206e6f7420746865206f776e657281525060200191505060405180910390fd5b6000600783604051610c719190612a12565b908152602001604051809103902060010160019054906101000a900460ff16905080610e28576060610ca1611f81565b60405180608001604052808681526020018560ff16815260200160011515815260200183815250905060068190806001815401808255809150506001900390600052602060002090600302016000909190919091506000820151816000019080519060200190610d12929190611fae565b5060208201518160010160006101000a81548160ff021916908360ff16021790555060408201518160010160016101000a81548160ff0219169083151502179055506060820151816002019080519060200190610d7092919061203c565b50505080600786604051610d849190612a12565b90815260200160405180910390206000820151816000019080519060200190610dae929190611fae565b5060208201518160010160006101000a81548160ff021916908360ff16021790555060408201518160010160016101000a81548160ff0219169083151502179055506060820151816002019080519060200190610e0c92919061203c565b5090505060016005600082825401925050819055505050610f71565b6001600784604051610e3a9190612a12565b908152602001604051809103902060010160008282829054906101000a900460ff160192506101000a81548160ff021916908360ff16021790555060005b600680549050811015610f6f5783604051602001610e969190612a12565b6040516020818303038152906040528051906020012060068281548110610eb957fe5b9060005260206000209060030201600001604051602001610eda9190612a29565b604051602081830303815290604052805190602001201415610f6257600060068281548110610f0557fe5b90600052602060002090600302019050600785604051610f259190612a12565b908152602001604051809103902060010160009054906101000a900460ff168160010160006101000a81548160ff021916908360ff160217905550505b8080600101915050610e78565b505b7f272b168e2afaa6efdce672a6f4f4f1b37eb61405daf39e4b520beeeacb2596ef83604051610fa09190612b78565b60405180910390a1505050565b60606006805480602002602001604051908101604052809291908181526020016000905b8282101561116b5783829060005260206000209060030201604051806080016040529081600082018054600181600116156101000203166002900480601f01602080910402602001604051908101604052809291908181526020018280546001816001161561010002031660029004801561108d5780601f106110625761010080835404028352916020019161108d565b820191906000526020600020905b81548152906001019060200180831161107057829003601f168201915b505050505081526020016001820160009054906101000a900460ff1660ff1660ff1681526020016001820160019054906101000a900460ff161515151581526020016002820180548060200260200160405190810160405280929190818152602001828054801561115357602002820191906000526020600020905b8160009054906101000a900473ffffffffffffffffffffffffffffffffffffffff1673ffffffffffffffffffffffffffffffffffffffff1681526020019060010190808311611109575b50505050508152505081526020019060010190610fd1565b50505050905090565b61117c611f79565b73ffffffffffffffffffffffffffffffffffffffff1661119a6107cb565b73ffffffffffffffffffffffffffffffffffffffff1614611223576040517f08c379a00000000000000000000000000000000000000000000000000000000081526004018080602001828103825260208152602001807f4f776e61626c653a2063616c6c6572206973206e6f7420746865206f776e657281525060200191505060405180910390fd5b6000600160009054906101000a900473ffffffffffffffffffffffffffffffffffffffff1673ffffffffffffffffffffffffffffffffffffffff166370a08231306040518263ffffffff1660e01b81526004016112809190612a5b565b60206040518083038186803b15801561129857600080fd5b505afa1580156112ac573d6000803e3d6000fd5b505050506040513d601f19601f820116820180604052508101906112d09190612302565b9050600160009054906101000a900473ffffffffffffffffffffffffffffffffffffffff1673ffffffffffffffffffffffffffffffffffffffff1663095ea7b3600360009054906101000a900473ffffffffffffffffffffffffffffffffffffffff16836040518363ffffffff1660e01b8152600401611351929190612aba565b602060405180830381600087803b15801561136b57600080fd5b505af115801561137f573d6000803e3d6000fd5b505050506040513d601f19601f820116820180604052508101906113a3919061221b565b50600260009054906101000a900473ffffffffffffffffffffffffffffffffffffffff1673ffffffffffffffffffffffffffffffffffffffff1663de0e9a3e826040518263ffffffff1660e01b81526004016113ff9190612cf8565b600060405180830381600087803b15801561141957600080fd5b505af115801561142d573d6000803e3d6000fd5b5050505050565b6007816040516114449190612a12565b908152602001604051809103902060010160019054906101000a900460ff166114a2576040517f08c379a000000000000000000000000000000000000000000000000000000000815260040161149990612c98565b60405180910390fd5b60006007826040516114b49190612a12565b908152602001604051809103902060010160009054906101000a900460ff1660ff161415611517576040517f08c379a000000000000000000000000000000000000000000000000000000000815260040161150e90612c78565b60405180910390fd5b600860003373ffffffffffffffffffffffffffffffffffffffff1673ffffffffffffffffffffffffffffffffffffffff168152602001908152602001600020816040516115649190612a12565b908152602001604051809103902060009054906101000a900460ff16156115c0576040517f08c379a00000000000000000000000000000000000000000000000000000000081526004016115b790612cb8565b60405180910390fd5b600454600160009054906101000a900473ffffffffffffffffffffffffffffffffffffffff1673ffffffffffffffffffffffffffffffffffffffff1663dd62ed3e33306040518363ffffffff1660e01b8152600401611620929190612a91565b60206040518083038186803b15801561163857600080fd5b505afa15801561164c573d6000803e3d6000fd5b505050506040513d601f19601f820116820180604052508101906116709190612302565b10156116b1576040517f08c379a00000000000000000000000000000000000000000000000000000000081526004016116a890612bd8565b60405180910390fd5b6000600160009054906101000a900473ffffffffffffffffffffffffffffffffffffffff1673ffffffffffffffffffffffffffffffffffffffff166370a08231336040518263ffffffff1660e01b815260040161170e9190612a5b565b60206040518083038186803b15801561172657600080fd5b505afa15801561173a573d6000803e3d6000fd5b505050506040513d601f19601f8201168201806040525081019061175e9190612302565b1161179e576040517f08c379a000000000000000000000000000000000000000000000000000000000815260040161179590612bf8565b60405180910390fd5b60016007826040516117b09190612a12565b908152602001604051809103902060010160008282829054906101000a900460ff160392506101000a81548160ff021916908360ff1602179055506007816040516117fb9190612a12565b9081526020016040518091039020600201339080600181540180825580915050600190039060005260206000200160009091909190916101000a81548173ffffffffffffffffffffffffffffffffffffffff021916908373ffffffffffffffffffffffffffffffffffffffff16021790555060005b60068054905081101561199b578160405160200161188e9190612a12565b60405160208183030381529060405280519060200120600682815481106118b157fe5b90600052602060002090600302016000016040516020016118d29190612a29565b60405160208183030381529060405280519060200120141561198e576000600682815481106118fd57fe5b9060005260206000209060030201905060078360405161191d9190612a12565b908152602001604051809103902060010160009054906101000a900460ff168160010160006101000a81548160ff021916908360ff1602179055506007836040516119689190612a12565b90815260200160405180910390206002018160020190805461198b9291906120c6565b50505b8080600101915050611870565b506001600860003373ffffffffffffffffffffffffffffffffffffffff1673ffffffffffffffffffffffffffffffffffffffff168152602001908152602001600020826040516119eb9190612a12565b908152602001604051809103902060006101000a81548160ff0219169083151502179055507fcccf80284b1751143f9ea2803a954b2642846c29009456a246ce78eee86b59d881604051611a3f9190612b78565b60405180910390a150565b606060006005541415611a92576040517f08c379a0000000000000000000000000000000000000000000000000000000008152600401611a8990612c58565b60405180910390fd5b6000805b6005548160ff161015611af257600060068260ff1681548110611ab557fe5b906000526020600020906003020160010160009054906101000a900460ff1660ff1614611ae55781806001019250505b8080600101915050611a96565b5060608160ff1667ffffffffffffffff81118015611b0f57600080fd5b50604051908082528060200260200182016040528015611b4957816020015b611b36611f81565b815260200190600190039081611b2e5790505b5090506000805b6005548160ff161015611d5757600060068260ff1681548110611b6f57fe5b906000526020600020906003020160010160009054906101000a900460ff1660ff1614611d4a5760068160ff1681548110611ba657fe5b9060005260206000209060030201604051806080016040529081600082018054600181600116156101000203166002900480601f016020809104026020016040519081016040528092919081815260200182805460018160011615610100020316600290048015611c585780601f10611c2d57610100808354040283529160200191611c58565b820191906000526020600020905b815481529060010190602001808311611c3b57829003601f168201915b505050505081526020016001820160009054906101000a900460ff1660ff1660ff1681526020016001820160019054906101000a900460ff1615151515815260200160028201805480602002602001604051908101604052809291908181526020018280548015611d1e57602002820191906000526020600020905b8160009054906101000a900473ffffffffffffffffffffffffffffffffffffffff1673ffffffffffffffffffffffffffffffffffffffff1681526020019060010190808311611cd4575b505050505081525050838360ff1681518110611d3657fe5b602002602001018190525081806001019250505b8080600101915050611b50565b5081935050505090565b600260009054906101000a900473ffffffffffffffffffffffffffffffffffffffff1681565b611d8f611f79565b73ffffffffffffffffffffffffffffffffffffffff16611dad6107cb565b73ffffffffffffffffffffffffffffffffffffffff1614611e36576040517f08c379a00000000000000000000000000000000000000000000000000000000081526004018080602001828103825260208152602001807f4f776e61626c653a2063616c6c6572206973206e6f7420746865206f776e657281525060200191505060405180910390fd5b600073ffffffffffffffffffffffffffffffffffffffff168173ffffffffffffffffffffffffffffffffffffffff161415611ebc576040517f08c379a0000000000000000000000000000000000000000000000000000000008152600401808060200182810382526026815260200180612fdb6026913960400191505060405180910390fd5b8073ffffffffffffffffffffffffffffffffffffffff1660008054906101000a900473ffffffffffffffffffffffffffffffffffffffff1673ffffffffffffffffffffffffffffffffffffffff167f8be0079c531659141344cd1fd0a4f28419497f9722a3daafe3b4186f6b6457e060405160405180910390a3806000806101000a81548173ffffffffffffffffffffffffffffffffffffffff021916908373ffffffffffffffffffffffffffffffffffffffff16021790555050565b600033905090565b604051806080016040528060608152602001600060ff168152602001600015158152602001606081525090565b828054600181600116156101000203166002900490600052602060002090601f016020900481019282611fe4576000855561202b565b82601f10611ffd57805160ff191683800117855561202b565b8280016001018555821561202b579182015b8281111561202a57825182559160200191906001019061200f565b5b5090506120389190612118565b5090565b8280548282559060005260206000209081019282156120b5579160200282015b828111156120b45782518260006101000a81548173ffffffffffffffffffffffffffffffffffffffff021916908373ffffffffffffffffffffffffffffffffffffffff1602179055509160200191906001019061205c565b5b5090506120c29190612118565b5090565b8280548282559060005260206000209081019282156121075760005260206000209182015b828111156121065782548255916001019190600101906120eb565b5b5090506121149190612118565b5090565b5b80821115612131576000816000905550600101612119565b5090565b60008135905061214481612f7e565b92915050565b60008151905061215981612f95565b92915050565b600082601f83011261217057600080fd5b813561218361217e82612d44565b612d13565b9150808252602083016020830185838301111561219f57600080fd5b6121aa838284612f29565b50505092915050565b6000813590506121c281612fac565b92915050565b6000815190506121d781612fac565b92915050565b6000813590506121ec81612fc3565b92915050565b60006020828403121561220457600080fd5b600061221284828501612135565b91505092915050565b60006020828403121561222d57600080fd5b600061223b8482850161214a565b91505092915050565b60006020828403121561225657600080fd5b600082013567ffffffffffffffff81111561227057600080fd5b61227c8482850161215f565b91505092915050565b6000806040838503121561229857600080fd5b600083013567ffffffffffffffff8111156122b257600080fd5b6122be8582860161215f565b92505060206122cf858286016121dd565b9150509250929050565b6000602082840312156122eb57600080fd5b60006122f9848285016121b3565b91505092915050565b60006020828403121561231457600080fd5b6000612322848285016121c8565b91505092915050565b60006123378383612375565b60208301905092915050565b600061234f838361297b565b905092915050565b61236081612eab565b82525050565b61236f81612e56565b82525050565b61237e81612e44565b82525050565b61238d81612e44565b82525050565b600061239e82612da9565b6123a88185612de4565b93506123b383612d74565b8060005b838110156123e45781516123cb888261232b565b97506123d683612dca565b9250506001810190506123b7565b5085935050505092915050565b60006123fc82612da9565b6124068185612df5565b935061241183612d74565b8060005b83811015612442578151612429888261232b565b975061243483612dca565b925050600181019050612415565b5085935050505092915050565b600061245a82612db4565b6124648185612e06565b93508360208202850161247685612d84565b8060005b858110156124b257848403895281516124938582612343565b945061249e83612dd7565b925060208a0199505060018101905061247a565b50829750879550505050505092915050565b6124cd81612e68565b82525050565b6124dc81612e68565b82525050565b6124eb81612ebd565b82525050565b6124fa81612ee1565b82525050565b600061250b82612dbf565b6125158185612e17565b9350612525818560208601612f38565b61252e81612f6d565b840191505092915050565b600061254482612dbf565b61254e8185612e28565b935061255e818560208601612f38565b61256781612f6d565b840191505092915050565b600061257d82612dbf565b6125878185612e39565b9350612597818560208601612f38565b80840191505092915050565b6000815460018116600081146125c057600181146125e557612629565b607f60028304166125d18187612e39565b955060ff1983168652808601935050612629565b600282046125f38187612e39565b95506125fe85612d94565b60005b8281101561262057815481890152600182019150602081019050612601565b82880195505050505b505092915050565b600061263e602083612e28565b91507f4e6f7420656e6f756768204c494220546f6b656e20616c6c6f77616e636520216000830152602082019050919050565b600061267e602d83612e28565b91507f557365722062616c616e6365206973206e6f7420656e6f75676820746f20726560008301527f6e742074686520626f6f6b2021000000000000000000000000000000000000006020830152604082019050919050565b60006126e4603d83612e28565b91507f546865207573657220697320747279696e6720746f2072657475726e2061206260008301527f6f6f6b20776869636820646f65736e27742065786973742079657420210000006020830152604082019050919050565b600061274a602383612e28565b91507f5468652072657175657374656420626f6f6b20646f65736e277420657869737460008301527f73202100000000000000000000000000000000000000000000000000000000006020830152604082019050919050565b60006127b0601883612e28565b91507f546865726520617265206e6f20736176656420626f6f6b7300000000000000006000830152602082019050919050565b60006127f0602d83612e28565b91507f536f727279207468657265206973206e6f7420656e6f75676820636f756e742060008301527f6f662074686520626f6f6b2021000000000000000000000000000000000000006020830152604082019050919050565b6000612856602383612e28565b91507f536f7272792074686520626f6f6b20646f65736e27742065786973747320796560008301527f74202100000000000000000000000000000000000000000000000000000000006020830152604082019050919050565b60006128bc603883612e28565b91507f536f7272792074686520757365722068617320616c726561647920626f72726f60008301527f776564206f6e6520636f7079206f662074686520626f6f6b00000000000000006020830152604082019050919050565b6000612922602383612e28565b91507f546865207573657220686176656e27742072656e746564207468617420626f6f60008301527f6b202100000000000000000000000000000000000000000000000000000000006020830152604082019050919050565b600060808301600083015184820360008601526129988282612500565b91505060208301516129ad60208601826129f4565b5060408301516129c060408601826124c4565b50606083015184820360608601526129d88282612393565b9150508091505092915050565b6129ee81612e94565b82525050565b6129fd81612e9e565b82525050565b612a0c81612e9e565b82525050565b6000612a1e8284612572565b915081905092915050565b6000612a3582846125a3565b915081905092915050565b6000602082019050612a556000830184612384565b92915050565b6000602082019050612a706000830184612357565b92915050565b6000602082019050612a8b6000830184612366565b92915050565b6000604082019050612aa66000830185612357565b612ab36020830184612357565b9392505050565b6000604082019050612acf6000830185612357565b612adc60208301846129e5565b9392505050565b60006020820190508181036000830152612afd81846123f1565b905092915050565b60006020820190508181036000830152612b1f818461244f565b905092915050565b6000602082019050612b3c60008301846124d3565b92915050565b6000602082019050612b5760008301846124e2565b92915050565b6000602082019050612b7260008301846124f1565b92915050565b60006020820190508181036000830152612b928184612539565b905092915050565b60006060820190508181036000830152612bb48186612539565b9050612bc36020830185612a03565b612bd060408301846124d3565b949350505050565b60006020820190508181036000830152612bf181612631565b9050919050565b60006020820190508181036000830152612c1181612671565b9050919050565b60006020820190508181036000830152612c31816126d7565b9050919050565b60006020820190508181036000830152612c518161273d565b9050919050565b60006020820190508181036000830152612c71816127a3565b9050919050565b60006020820190508181036000830152612c91816127e3565b9050919050565b60006020820190508181036000830152612cb181612849565b9050919050565b60006020820190508181036000830152612cd1816128af565b9050919050565b60006020820190508181036000830152612cf181612915565b9050919050565b6000602082019050612d0d60008301846129e5565b92915050565b6000604051905081810181811067ffffffffffffffff82111715612d3a57612d39612f6b565b5b8060405250919050565b600067ffffffffffffffff821115612d5f57612d5e612f6b565b5b601f19601f8301169050602081019050919050565b6000819050602082019050919050565b6000819050602082019050919050565b60008190508160005260206000209050919050565b600081519050919050565b600081519050919050565b600081519050919050565b6000602082019050919050565b6000602082019050919050565b600082825260208201905092915050565b600082825260208201905092915050565b600082825260208201905092915050565b600082825260208201905092915050565b600082825260208201905092915050565b600081905092915050565b6000612e4f82612e74565b9050919050565b6000612e6182612e74565b9050919050565b60008115159050919050565b600073ffffffffffffffffffffffffffffffffffffffff82169050919050565b6000819050919050565b600060ff82169050919050565b6000612eb682612f05565b9050919050565b6000612ec882612ecf565b9050919050565b6000612eda82612e74565b9050919050565b6000612eec82612ef3565b9050919050565b6000612efe82612e74565b9050919050565b6000612f1082612f17565b9050919050565b6000612f2282612e74565b9050919050565b82818337600083830152505050565b60005b83811015612f56578082015181840152602081019050612f3b565b83811115612f65576000848401525b50505050565bfe5b6000601f19601f8301169050919050565b612f8781612e44565b8114612f9257600080fd5b50565b612f9e81612e68565b8114612fa957600080fd5b50565b612fb581612e94565b8114612fc057600080fd5b50565b612fcc81612e9e565b8114612fd757600080fd5b5056fe4f776e61626c653a206e6577206f776e657220697320746865207a65726f2061646472657373a26469706673582212202a5175e61cfb57f913e93453972d7079cc11b91aea5d5787edcca23fef7a7dea64736f6c63430007050033",
  "source": "// SPDX-License-Identifier: UNLICENSED\npragma experimental ABIEncoderV2;\npragma solidity >=0.7.0;\n\nimport \"@openzeppelin/contracts/access/Ownable.sol\";\nimport \"@openzeppelin/contracts/token/ERC20/IERC20.sol\";\nimport \"./LIBWrapper.sol\";\n\ncontract BookLibrary is Ownable {\n  IERC20 public LIBToken;\n  LIBWrapper public LIBWrapperContract;\n\n  address payable public wrapperAddress;\n  uint public rent = 1000000000000;\n\n  struct Book {\n      string id;\n      uint8 count;\n      bool exists;\n      address[] borrowers;\n  }\n\n  uint256 booksCount = 0;\n\n  Book[] public booksStored;\n  mapping (string => Book) private books;\n  mapping (address => mapping (string => bool)) private userBooks;\n\n  // Events\n  event BookAdded(string name);\n  event BookBorrowed(string name);\n  event BookReturned(string name);\n\n  constructor(address LIBTokenAddress, address payable LIBWrapperAddress) public {\n    LIBToken = IERC20(LIBTokenAddress);\n    LIBWrapperContract = LIBWrapper(LIBWrapperAddress);\n    wrapperAddress = LIBWrapperAddress;\n  }\n\n  // Getters\n  function getAvailableBooks() public view returns (Book[] memory) {\n    require(booksCount != 0, \"There are no saved books\");\n    // Count the available booksCount\n    uint8 availableBooksCount = 0;\n    for (uint8 i = 0; i < booksCount; i++) {\n        if (booksStored[i].count != 0) {\n            availableBooksCount++;\n        }\n    }\n\n    // Create dynamic memory array\n    Book[] memory dynamicMemoryArray = new Book[](availableBooksCount);\n    uint8 counter = 0;\n    for (uint8 i = 0; i < booksCount; i++) {\n        if (booksStored[i].count != 0) {\n            dynamicMemoryArray[counter] = booksStored[i];\n            counter++;\n        }\n    }\n\n    return dynamicMemoryArray;\n  }\n\n  function getStoredBooks () public view returns (Book[] memory) {\n      return booksStored;\n  }\n\n  function getBorrowers(string memory id) public view returns (address[] memory) {\n      require(books[id].exists, \"The requested book doesn't exists !\");\n      return books[id].borrowers;\n  }\n\n  // Interactions\n  function addBook(string memory id, uint8 count) public onlyOwner {\n    bool exists = books[id].exists;\n\n    // If the book is not present in the mapping\n    if (!exists) {\n      // Create new book\n      address[] memory borrowers;\n      Book memory newBook = Book({ id: id, count: count, exists: true, borrowers: borrowers });\n\n      booksStored.push(newBook);\n      books[id] = newBook;\n      booksCount += 1;\n    } else {\n      // The book is present\n      books[id].count += 1;\n\n      // Update the booksStored array\n      for (uint256 i = 0; i < booksStored.length; i++) {\n        if (keccak256(abi.encodePacked((booksStored[i].id))) == keccak256(abi.encodePacked((id)))) {\n            Book storage currentBook = booksStored[i];\n            currentBook.count = books[id].count;\n        }\n      }\n    }\n\n    emit BookAdded(id);\n  }\n\n  function borrowBook(string memory id) public {\n      require(books[id].exists, \"Sorry the book doesn't exists yet !\");\n      require(books[id].count != 0, \"Sorry there is not enough count of the book !\");\n      require(!userBooks[msg.sender][id], \"Sorry the user has already borrowed one copy of the book\");\n\n      // The user must have allowance\n      require(LIBToken.allowance(msg.sender, address(this)) >= rent, \"Not enough LIB Token allowance !\");\n      require(LIBToken.balanceOf(msg.sender) > 0, \"User balance is not enough to rent the book !\");\n\n      // Update books mapping\n      books[id].count -= 1;\n      books[id].borrowers.push(msg.sender);\n\n      // Update the booksStored array\n      for (uint256 i = 0; i < booksStored.length; i++) {\n          if (keccak256(abi.encodePacked((booksStored[i].id))) == keccak256(abi.encodePacked((id)))) {\n              // Get the storage pointer of the Book\n              Book storage currentBook = booksStored[i];\n              currentBook.count = books[id].count;\n              currentBook.borrowers = books[id].borrowers;\n          }\n      }\n\n      // Add the book to the userBooks mapping\n      userBooks[msg.sender][id] = true;\n      emit BookBorrowed(id);\n  }\n\n  function withdrawLibraryAmount() public onlyOwner {\n      uint256 libraryAmount = LIBToken.balanceOf(address(this));\n      LIBToken.approve(wrapperAddress, libraryAmount);\n\n      LIBWrapperContract.unwrap(libraryAmount);\n  }\n\n  function returnBook(string memory id, uint8 count) public {\n      require(books[id].exists, \"The user is trying to return a book which doesn't exist yet !\");\n      require(userBooks[msg.sender][id], \"The user haven't rented that book !\");\n\n      // Update the books mapping\n      books[id].count += count;\n\n      // Update the booksStored array\n      for (uint256 i = 0; i < booksStored.length; i++) {\n          if (keccak256(abi.encodePacked((booksStored[i].id))) == keccak256(abi.encodePacked((id)))) {\n              Book storage currentBook = booksStored[i];\n              currentBook.count = books[id].count;\n          }\n      }\n\n      // Remove the book from the userBooks mapping\n      userBooks[msg.sender][id] = false;\n\n      emit BookReturned(id);\n  }\n\n  // Flags\n  function isAvailable(string memory id) public view returns (bool) {\n    return books[id].count != 0;\n  }\n\n  function isRented(string memory id) public view returns (bool) {\n    return userBooks[msg.sender][id];\n  }\n\n  // Fallbacks\n  receive() external payable {}\n}",
  "sourcePath": "/Users/steriostaskudis/Desktop/Training path/books-solidity/contracts/BookLibrary.sol",
  "compiler": {
    "name": "solc",
    "version": "0.7.5+commit.eb77ed08.Emscripten.clang",
    "optimizer": false,
    "runs": 200
  },
  "schemaVersion": "2.3.5",
  "updatedAt": "2021-06-06T08:13:10.941Z"
}