{
  "contractName": "BookLibrary",
  "abi": [
    {
      "inputs": [
        {
          "internalType": "address",
          "name": "LIBTokenAddress",
          "type": "address"
        },
        {
          "internalType": "address payable",
          "name": "LIBWrapperAddress",
          "type": "address"
        }
      ],
      "stateMutability": "nonpayable",
      "type": "constructor"
    },
    {
      "anonymous": false,
      "inputs": [
        {
          "indexed": false,
          "internalType": "string",
          "name": "name",
          "type": "string"
        }
      ],
      "name": "BookAdded",
      "type": "event"
    },
    {
      "anonymous": false,
      "inputs": [
        {
          "indexed": false,
          "internalType": "string",
          "name": "name",
          "type": "string"
        }
      ],
      "name": "BookBorrowed",
      "type": "event"
    },
    {
      "anonymous": false,
      "inputs": [
        {
          "indexed": false,
          "internalType": "string",
          "name": "name",
          "type": "string"
        }
      ],
      "name": "BookReturned",
      "type": "event"
    },
    {
      "anonymous": false,
      "inputs": [
        {
          "indexed": true,
          "internalType": "address",
          "name": "previousOwner",
          "type": "address"
        },
        {
          "indexed": true,
          "internalType": "address",
          "name": "newOwner",
          "type": "address"
        }
      ],
      "name": "OwnershipTransferred",
      "type": "event"
    },
    {
      "inputs": [],
      "name": "LIBToken",
      "outputs": [
        {
          "internalType": "contract LIB",
          "name": "",
          "type": "address"
        }
      ],
      "stateMutability": "view",
      "type": "function"
    },
    {
      "inputs": [],
      "name": "LIBWrapperContract",
      "outputs": [
        {
          "internalType": "contract LIBWrapper",
          "name": "",
          "type": "address"
        }
      ],
      "stateMutability": "view",
      "type": "function"
    },
    {
      "inputs": [
        {
          "internalType": "uint256",
          "name": "",
          "type": "uint256"
        }
      ],
      "name": "booksStored",
      "outputs": [
        {
          "internalType": "string",
          "name": "",
          "type": "string"
        }
      ],
      "stateMutability": "view",
      "type": "function"
    },
    {
      "inputs": [],
      "name": "owner",
      "outputs": [
        {
          "internalType": "address",
          "name": "",
          "type": "address"
        }
      ],
      "stateMutability": "view",
      "type": "function"
    },
    {
      "inputs": [],
      "name": "renounceOwnership",
      "outputs": [],
      "stateMutability": "nonpayable",
      "type": "function"
    },
    {
      "inputs": [],
      "name": "rent",
      "outputs": [
        {
          "internalType": "uint256",
          "name": "",
          "type": "uint256"
        }
      ],
      "stateMutability": "view",
      "type": "function"
    },
    {
      "inputs": [
        {
          "internalType": "address",
          "name": "newOwner",
          "type": "address"
        }
      ],
      "name": "transferOwnership",
      "outputs": [],
      "stateMutability": "nonpayable",
      "type": "function"
    },
    {
      "inputs": [],
      "name": "wrapperAddress",
      "outputs": [
        {
          "internalType": "address payable",
          "name": "",
          "type": "address"
        }
      ],
      "stateMutability": "view",
      "type": "function"
    },
    {
      "stateMutability": "payable",
      "type": "receive"
    },
    {
      "inputs": [],
      "name": "getStoredBooks",
      "outputs": [
        {
          "internalType": "string[]",
          "name": "",
          "type": "string[]"
        }
      ],
      "stateMutability": "view",
      "type": "function"
    },
    {
      "inputs": [
        {
          "internalType": "string",
          "name": "_id",
          "type": "string"
        }
      ],
      "name": "getBorrowers",
      "outputs": [
        {
          "internalType": "address[]",
          "name": "",
          "type": "address[]"
        }
      ],
      "stateMutability": "view",
      "type": "function"
    },
    {
      "inputs": [
        {
          "internalType": "string",
          "name": "_id",
          "type": "string"
        },
        {
          "internalType": "uint8",
          "name": "_count",
          "type": "uint8"
        }
      ],
      "name": "addBook",
      "outputs": [],
      "stateMutability": "nonpayable",
      "type": "function"
    },
    {
      "inputs": [
        {
          "internalType": "string",
          "name": "_id",
          "type": "string"
        }
      ],
      "name": "borrowBook",
      "outputs": [],
      "stateMutability": "nonpayable",
      "type": "function"
    },
    {
      "inputs": [
        {
          "internalType": "string",
          "name": "_id",
          "type": "string"
        },
        {
          "internalType": "uint256",
          "name": "_value",
          "type": "uint256"
        },
        {
          "internalType": "uint256",
          "name": "_deadline",
          "type": "uint256"
        },
        {
          "internalType": "uint8",
          "name": "_v",
          "type": "uint8"
        },
        {
          "internalType": "bytes32",
          "name": "_r",
          "type": "bytes32"
        },
        {
          "internalType": "bytes32",
          "name": "_s",
          "type": "bytes32"
        }
      ],
      "name": "borrowBookBySignature",
      "outputs": [],
      "stateMutability": "nonpayable",
      "type": "function"
    },
    {
      "inputs": [],
      "name": "withdrawLibraryAmount",
      "outputs": [],
      "stateMutability": "nonpayable",
      "type": "function"
    },
    {
      "inputs": [
        {
          "internalType": "string",
          "name": "_id",
          "type": "string"
        },
        {
          "internalType": "uint8",
          "name": "count",
          "type": "uint8"
        }
      ],
      "name": "returnBook",
      "outputs": [],
      "stateMutability": "nonpayable",
      "type": "function"
    },
    {
      "inputs": [
        {
          "internalType": "string",
          "name": "_id",
          "type": "string"
        }
      ],
      "name": "getBook",
      "outputs": [
        {
          "components": [
            {
              "internalType": "string",
              "name": "id",
              "type": "string"
            },
            {
              "internalType": "uint8",
              "name": "count",
              "type": "uint8"
            },
            {
              "internalType": "bool",
              "name": "exists",
              "type": "bool"
            },
            {
              "internalType": "address[]",
              "name": "borrowers",
              "type": "address[]"
            }
          ],
          "internalType": "struct BookLibrary.Book",
          "name": "",
          "type": "tuple"
        }
      ],
      "stateMutability": "view",
      "type": "function"
    },
    {
      "inputs": [
        {
          "internalType": "string",
          "name": "_id",
          "type": "string"
        }
      ],
      "name": "isAvailable",
      "outputs": [
        {
          "internalType": "bool",
          "name": "",
          "type": "bool"
        }
      ],
      "stateMutability": "view",
      "type": "function"
    },
    {
      "inputs": [
        {
          "internalType": "string",
          "name": "_id",
          "type": "string"
        }
      ],
      "name": "isRented",
      "outputs": [
        {
          "internalType": "bool",
          "name": "",
          "type": "bool"
        }
      ],
      "stateMutability": "view",
      "type": "function"
    }
  ],
  "bytecode": "0x608060405264e8d4a510006004553480156200001a57600080fd5b5060405162003368380380620033688339818101604052810190620000409190620001f1565b600062000052620001bb60201b60201c565b9050806000806101000a81548173ffffffffffffffffffffffffffffffffffffffff021916908373ffffffffffffffffffffffffffffffffffffffff1602179055508073ffffffffffffffffffffffffffffffffffffffff16600073ffffffffffffffffffffffffffffffffffffffff167f8be0079c531659141344cd1fd0a4f28419497f9722a3daafe3b4186f6b6457e060405160405180910390a35081600160006101000a81548173ffffffffffffffffffffffffffffffffffffffff021916908373ffffffffffffffffffffffffffffffffffffffff16021790555080600260006101000a81548173ffffffffffffffffffffffffffffffffffffffff021916908373ffffffffffffffffffffffffffffffffffffffff16021790555080600360006101000a81548173ffffffffffffffffffffffffffffffffffffffff021916908373ffffffffffffffffffffffffffffffffffffffff1602179055505050620002ae565b600033905090565b600081519050620001d4816200027a565b92915050565b600081519050620001eb8162000294565b92915050565b600080604083850312156200020557600080fd5b60006200021585828601620001c3565b92505060206200022885828601620001da565b9150509250929050565b60006200023f826200025a565b9050919050565b600062000253826200025a565b9050919050565b600073ffffffffffffffffffffffffffffffffffffffff82169050919050565b620002858162000232565b81146200029157600080fd5b50565b6200029f8162000246565b8114620002ab57600080fd5b50565b6130aa80620002be6000396000f3fe60806040526004361061010d5760003560e01c8063965306aa11610095578063bddb56b411610064578063bddb56b414610376578063c37a83611461038d578063ced96fe3146103ca578063f2ddbb7f146103f3578063f2fde38b1461041e57610114565b8063965306aa146102a8578063a034d084146102e5578063a63ac38e14610322578063b47153521461034b57610114565b8063715018a6116100dc578063715018a6146101e75780637df8b802146101fe57806382996d9f146102295780638da5cb5b1461025457806394949eee1461027f57610114565b80631ba3192b146101195780632588b13414610144578063324adf2c14610181578063582bcda5146101aa57610114565b3661011457005b600080fd5b34801561012557600080fd5b5061012e610447565b60405161013b9190612c01565b60405180910390f35b34801561015057600080fd5b5061016b60048036038101906101669190612358565b61046d565b6040516101789190612c1c565b60405180910390f35b34801561018d57600080fd5b506101a860048036038101906101a39190612263565b610529565b005b3480156101b657600080fd5b506101d160048036038101906101cc9190612222565b610b44565b6040516101de9190612b87565b60405180910390f35b3480156101f357600080fd5b506101fc610c77565b005b34801561020a57600080fd5b50610213610de4565b6040516102209190612a1f565b60405180910390f35b34801561023557600080fd5b5061023e610e0a565b60405161024b9190612d60565b60405180910390f35b34801561026057600080fd5b50610269610e10565b60405161027691906129e9565b60405180910390f35b34801561028b57600080fd5b506102a660048036038101906102a19190612304565b610e39565b005b3480156102b457600080fd5b506102cf60048036038101906102ca9190612222565b61104a565b6040516102dc9190612bcb565b60405180910390f35b3480156102f157600080fd5b5061030c60048036038101906103079190612222565b6110a9565b6040516103199190612bcb565b60405180910390f35b34801561032e57600080fd5b5061034960048036038101906103449190612304565b61113b565b005b34801561035757600080fd5b506103606113ca565b60405161036d9190612ba9565b60405180910390f35b34801561038257600080fd5b5061038b6114b3565b005b34801561039957600080fd5b506103b460048036038101906103af9190612222565b611773565b6040516103c19190612d3e565b60405180910390f35b3480156103d657600080fd5b506103f160048036038101906103ec9190612222565b611997565b005b3480156103ff57600080fd5b50610408611d3e565b6040516104159190612be6565b60405180910390f35b34801561042a57600080fd5b50610445600480360381019061044091906121a7565b611d64565b005b600160009054906101000a900473ffffffffffffffffffffffffffffffffffffffff1681565b6005818154811061047d57600080fd5b906000526020600020016000915090508054600181600116156101000203166002900480601f0160208091040260200160405190810160405280929190818152602001828054600181600116156101000203166002900480156105215780601f106104f657610100808354040283529160200191610521565b820191906000526020600020905b81548152906001019060200180831161050457829003601f168201915b505050505081565b60008660405160200161053c91906129d2565b6040516020818303038152906040528051906020012090506006600082815260200190815260200160002060010160019054906101000a900460ff166105b7576040517f08c379a00000000000000000000000000000000000000000000000000000000081526004016105ae90612cde565b60405180910390fd5b60006006600083815260200190815260200160002060010160009054906101000a900460ff1660ff161415610621576040517f08c379a000000000000000000000000000000000000000000000000000000000815260040161061890612cbe565b60405180910390fd5b6007600082815260200190815260200160002060003373ffffffffffffffffffffffffffffffffffffffff1673ffffffffffffffffffffffffffffffffffffffff16815260200190815260200160002060009054906101000a900460ff16156106bf576040517f08c379a00000000000000000000000000000000000000000000000000000000081526004016106b690612cfe565b60405180910390fd5b6000600160009054906101000a900473ffffffffffffffffffffffffffffffffffffffff1673ffffffffffffffffffffffffffffffffffffffff16637ecebe00336040518263ffffffff1660e01b815260040161071c9190612a04565b60206040518083038186803b15801561073457600080fd5b505afa158015610748573d6000803e3d6000fd5b505050506040513d601f19601f8201168201806040525081019061076c9190612381565b90503373ffffffffffffffffffffffffffffffffffffffff16600160009054906101000a900473ffffffffffffffffffffffffffffffffffffffff1673ffffffffffffffffffffffffffffffffffffffff1663b107d66033308b8b8b8b8b8a6040518963ffffffff1660e01b81526004016107ee989796959493929190612ae0565b60206040518083038186803b15801561080657600080fd5b505afa15801561081a573d6000803e3d6000fd5b505050506040513d601f19601f8201168201806040525081019061083e91906121d0565b73ffffffffffffffffffffffffffffffffffffffff1614610894576040517f08c379a000000000000000000000000000000000000000000000000000000000815260040161088b90612c9e565b60405180910390fd5b600160009054906101000a900473ffffffffffffffffffffffffffffffffffffffff1673ffffffffffffffffffffffffffffffffffffffff1663d505accf33308a8a8a8a8a6040518863ffffffff1660e01b81526004016108fb9796959493929190612a71565b600060405180830381600087803b15801561091557600080fd5b505af1158015610929573d6000803e3d6000fd5b50505050600160009054906101000a900473ffffffffffffffffffffffffffffffffffffffff1673ffffffffffffffffffffffffffffffffffffffff166323b872dd33306004546040518463ffffffff1660e01b815260040161098e93929190612a3a565b602060405180830381600087803b1580156109a857600080fd5b505af11580156109bc573d6000803e3d6000fd5b505050506040513d601f19601f820116820180604052508101906109e091906121f9565b5060016006600084815260200190815260200160002060010160008282829054906101000a900460ff160392506101000a81548160ff021916908360ff16021790555060066000838152602001908152602001600020600201339080600181540180825580915050600190039060005260206000200160009091909190916101000a81548173ffffffffffffffffffffffffffffffffffffffff021916908373ffffffffffffffffffffffffffffffffffffffff16021790555060016007600084815260200190815260200160002060003373ffffffffffffffffffffffffffffffffffffffff1673ffffffffffffffffffffffffffffffffffffffff16815260200190815260200160002060006101000a81548160ff0219169083151502179055507fcccf80284b1751143f9ea2803a954b2642846c29009456a246ce78eee86b59d888604051610b329190612c1c565b60405180910390a15050505050505050565b6060600082604051602001610b5991906129d2565b6040516020818303038152906040528051906020012090506006600082815260200190815260200160002060010160019054906101000a900460ff16610bd4576040517f08c379a0000000000000000000000000000000000000000000000000000000008152600401610bcb90612c5e565b60405180910390fd5b60066000828152602001908152602001600020600201805480602002602001604051908101604052809291908181526020018280548015610c6a57602002820191906000526020600020905b8160009054906101000a900473ffffffffffffffffffffffffffffffffffffffff1673ffffffffffffffffffffffffffffffffffffffff1681526020019060010190808311610c20575b5050505050915050919050565b610c7f611f56565b73ffffffffffffffffffffffffffffffffffffffff16610c9d610e10565b73ffffffffffffffffffffffffffffffffffffffff1614610d26576040517f08c379a00000000000000000000000000000000000000000000000000000000081526004018080602001828103825260208152602001807f4f776e61626c653a2063616c6c6572206973206e6f7420746865206f776e657281525060200191505060405180910390fd5b600073ffffffffffffffffffffffffffffffffffffffff1660008054906101000a900473ffffffffffffffffffffffffffffffffffffffff1673ffffffffffffffffffffffffffffffffffffffff167f8be0079c531659141344cd1fd0a4f28419497f9722a3daafe3b4186f6b6457e060405160405180910390a360008060006101000a81548173ffffffffffffffffffffffffffffffffffffffff021916908373ffffffffffffffffffffffffffffffffffffffff160217905550565b600360009054906101000a900473ffffffffffffffffffffffffffffffffffffffff1681565b60045481565b60008060009054906101000a900473ffffffffffffffffffffffffffffffffffffffff16905090565b600082604051602001610e4c91906129d2565b6040516020818303038152906040528051906020012090506006600082815260200190815260200160002060010160019054906101000a900460ff16610ec7576040517f08c379a0000000000000000000000000000000000000000000000000000000008152600401610ebe90612c3e565b60405180910390fd5b6007600082815260200190815260200160002060003373ffffffffffffffffffffffffffffffffffffffff1673ffffffffffffffffffffffffffffffffffffffff16815260200190815260200160002060009054906101000a900460ff16610f64576040517f08c379a0000000000000000000000000000000000000000000000000000000008152600401610f5b90612d1e565b60405180910390fd5b816006600083815260200190815260200160002060010160008282829054906101000a900460ff160192506101000a81548160ff021916908360ff16021790555060006007600083815260200190815260200160002060003373ffffffffffffffffffffffffffffffffffffffff1673ffffffffffffffffffffffffffffffffffffffff16815260200190815260200160002060006101000a81548160ff0219169083151502179055507f1a467d925cbd35155a7cdd05f9207ad929a02ffb3292ece4d3291a4359f6c83c8360405161103d9190612c1c565b60405180910390a1505050565b6000808260405160200161105e91906129d2565b60405160208183030381529060405280519060200120905060006006600083815260200190815260200160002060010160009054906101000a900460ff1660ff161415915050919050565b600080826040516020016110bd91906129d2565b6040516020818303038152906040528051906020012090506007600082815260200190815260200160002060003373ffffffffffffffffffffffffffffffffffffffff1673ffffffffffffffffffffffffffffffffffffffff16815260200190815260200160002060009054906101000a900460ff16915050919050565b611143611f56565b73ffffffffffffffffffffffffffffffffffffffff16611161610e10565b73ffffffffffffffffffffffffffffffffffffffff16146111ea576040517f08c379a00000000000000000000000000000000000000000000000000000000081526004018080602001828103825260208152602001807f4f776e61626c653a2063616c6c6572206973206e6f7420746865206f776e657281525060200191505060405180910390fd5b6000826040516020016111fd91906129d2565b60405160208183030381529060405280519060200120905060006006600083815260200190815260200160002060010160019054906101000a900460ff1690508061134a57606061124c611f5e565b60405180608001604052808781526020018660ff1681526020016001151581526020018381525090506005869080600181540180825580915050600190039060005260206000200160009091909190915090805190602001906112b0929190611f8b565b50806006600086815260200190815260200160002060008201518160000190805190602001906112e1929190611f8b565b5060208201518160010160006101000a81548160ff021916908360ff16021790555060408201518160010160016101000a81548160ff021916908315150217905550606082015181600201908051906020019061133f929190612019565b50905050505061138d565b60016006600084815260200190815260200160002060010160008282829054906101000a900460ff160192506101000a81548160ff021916908360ff1602179055505b7f272b168e2afaa6efdce672a6f4f4f1b37eb61405daf39e4b520beeeacb2596ef846040516113bc9190612c1c565b60405180910390a150505050565b60606005805480602002602001604051908101604052809291908181526020016000905b828210156114aa578382906000526020600020018054600181600116156101000203166002900480601f0160208091040260200160405190810160405280929190818152602001828054600181600116156101000203166002900480156114965780601f1061146b57610100808354040283529160200191611496565b820191906000526020600020905b81548152906001019060200180831161147957829003601f168201915b5050505050815260200190600101906113ee565b50505050905090565b6114bb611f56565b73ffffffffffffffffffffffffffffffffffffffff166114d9610e10565b73ffffffffffffffffffffffffffffffffffffffff1614611562576040517f08c379a00000000000000000000000000000000000000000000000000000000081526004018080602001828103825260208152602001807f4f776e61626c653a2063616c6c6572206973206e6f7420746865206f776e657281525060200191505060405180910390fd5b6000600160009054906101000a900473ffffffffffffffffffffffffffffffffffffffff1673ffffffffffffffffffffffffffffffffffffffff166370a08231306040518263ffffffff1660e01b81526004016115bf9190612a04565b60206040518083038186803b1580156115d757600080fd5b505afa1580156115eb573d6000803e3d6000fd5b505050506040513d601f19601f8201168201806040525081019061160f9190612381565b9050600160009054906101000a900473ffffffffffffffffffffffffffffffffffffffff1673ffffffffffffffffffffffffffffffffffffffff1663095ea7b3600360009054906101000a900473ffffffffffffffffffffffffffffffffffffffff16836040518363ffffffff1660e01b8152600401611690929190612b5e565b602060405180830381600087803b1580156116aa57600080fd5b505af11580156116be573d6000803e3d6000fd5b505050506040513d601f19601f820116820180604052508101906116e291906121f9565b50600260009054906101000a900473ffffffffffffffffffffffffffffffffffffffff1673ffffffffffffffffffffffffffffffffffffffff1663de0e9a3e826040518263ffffffff1660e01b815260040161173e9190612d60565b600060405180830381600087803b15801561175857600080fd5b505af115801561176c573d6000803e3d6000fd5b5050505050565b61177b611f5e565b60008260405160200161178e91906129d2565b6040516020818303038152906040528051906020012090506006600082815260200190815260200160002060010160019054906101000a900460ff16611809576040517f08c379a000000000000000000000000000000000000000000000000000000000815260040161180090612cde565b60405180910390fd5b60066000828152602001908152602001600020604051806080016040529081600082018054600181600116156101000203166002900480601f0160208091040260200160405190810160405280929190818152602001828054600181600116156101000203166002900480156118c05780601f10611895576101008083540402835291602001916118c0565b820191906000526020600020905b8154815290600101906020018083116118a357829003601f168201915b505050505081526020016001820160009054906101000a900460ff1660ff1660ff1681526020016001820160019054906101000a900460ff161515151581526020016002820180548060200260200160405190810160405280929190818152602001828054801561198657602002820191906000526020600020905b8160009054906101000a900473ffffffffffffffffffffffffffffffffffffffff1673ffffffffffffffffffffffffffffffffffffffff168152602001906001019080831161193c575b505050505081525050915050919050565b6000816040516020016119aa91906129d2565b6040516020818303038152906040528051906020012090506006600082815260200190815260200160002060010160019054906101000a900460ff16611a25576040517f08c379a0000000000000000000000000000000000000000000000000000000008152600401611a1c90612cde565b60405180910390fd5b60006006600083815260200190815260200160002060010160009054906101000a900460ff1660ff161415611a8f576040517f08c379a0000000000000000000000000000000000000000000000000000000008152600401611a8690612c7e565b60405180910390fd5b6007600082815260200190815260200160002060003373ffffffffffffffffffffffffffffffffffffffff1673ffffffffffffffffffffffffffffffffffffffff16815260200190815260200160002060009054906101000a900460ff1615611b2d576040517f08c379a0000000000000000000000000000000000000000000000000000000008152600401611b2490612cfe565b60405180910390fd5b600160009054906101000a900473ffffffffffffffffffffffffffffffffffffffff1673ffffffffffffffffffffffffffffffffffffffff166323b872dd33306004546040518463ffffffff1660e01b8152600401611b8e93929190612a3a565b602060405180830381600087803b158015611ba857600080fd5b505af1158015611bbc573d6000803e3d6000fd5b505050506040513d601f19601f82011682018060405250810190611be091906121f9565b5060016006600083815260200190815260200160002060010160008282829054906101000a900460ff160392506101000a81548160ff021916908360ff16021790555060066000828152602001908152602001600020600201339080600181540180825580915050600190039060005260206000200160009091909190916101000a81548173ffffffffffffffffffffffffffffffffffffffff021916908373ffffffffffffffffffffffffffffffffffffffff16021790555060016007600083815260200190815260200160002060003373ffffffffffffffffffffffffffffffffffffffff1673ffffffffffffffffffffffffffffffffffffffff16815260200190815260200160002060006101000a81548160ff0219169083151502179055507fcccf80284b1751143f9ea2803a954b2642846c29009456a246ce78eee86b59d882604051611d329190612c1c565b60405180910390a15050565b600260009054906101000a900473ffffffffffffffffffffffffffffffffffffffff1681565b611d6c611f56565b73ffffffffffffffffffffffffffffffffffffffff16611d8a610e10565b73ffffffffffffffffffffffffffffffffffffffff1614611e13576040517f08c379a00000000000000000000000000000000000000000000000000000000081526004018080602001828103825260208152602001807f4f776e61626c653a2063616c6c6572206973206e6f7420746865206f776e657281525060200191505060405180910390fd5b600073ffffffffffffffffffffffffffffffffffffffff168173ffffffffffffffffffffffffffffffffffffffff161415611e99576040517f08c379a000000000000000000000000000000000000000000000000000000000815260040180806020018281038252602681526020018061304f6026913960400191505060405180910390fd5b8073ffffffffffffffffffffffffffffffffffffffff1660008054906101000a900473ffffffffffffffffffffffffffffffffffffffff1673ffffffffffffffffffffffffffffffffffffffff167f8be0079c531659141344cd1fd0a4f28419497f9722a3daafe3b4186f6b6457e060405160405180910390a3806000806101000a81548173ffffffffffffffffffffffffffffffffffffffff021916908373ffffffffffffffffffffffffffffffffffffffff16021790555050565b600033905090565b604051806080016040528060608152602001600060ff168152602001600015158152602001606081525090565b828054600181600116156101000203166002900490600052602060002090601f016020900481019282611fc15760008555612008565b82601f10611fda57805160ff1916838001178555612008565b82800160010185558215612008579182015b82811115612007578251825591602001919060010190611fec565b5b50905061201591906120a3565b5090565b828054828255906000526020600020908101928215612092579160200282015b828111156120915782518260006101000a81548173ffffffffffffffffffffffffffffffffffffffff021916908373ffffffffffffffffffffffffffffffffffffffff16021790555091602001919060010190612039565b5b50905061209f91906120a3565b5090565b5b808211156120bc5760008160009055506001016120a4565b5090565b6000813590506120cf81612fdb565b92915050565b6000815190506120e481612fdb565b92915050565b6000815190506120f981612ff2565b92915050565b60008135905061210e81613009565b92915050565b600082601f83011261212557600080fd5b813561213861213382612dac565b612d7b565b9150808252602083016020830185838301111561215457600080fd5b61215f838284612f86565b50505092915050565b60008135905061217781613020565b92915050565b60008151905061218c81613020565b92915050565b6000813590506121a181613037565b92915050565b6000602082840312156121b957600080fd5b60006121c7848285016120c0565b91505092915050565b6000602082840312156121e257600080fd5b60006121f0848285016120d5565b91505092915050565b60006020828403121561220b57600080fd5b6000612219848285016120ea565b91505092915050565b60006020828403121561223457600080fd5b600082013567ffffffffffffffff81111561224e57600080fd5b61225a84828501612114565b91505092915050565b60008060008060008060c0878903121561227c57600080fd5b600087013567ffffffffffffffff81111561229657600080fd5b6122a289828a01612114565b96505060206122b389828a01612168565b95505060406122c489828a01612168565b94505060606122d589828a01612192565b93505060806122e689828a016120ff565b92505060a06122f789828a016120ff565b9150509295509295509295565b6000806040838503121561231757600080fd5b600083013567ffffffffffffffff81111561233157600080fd5b61233d85828601612114565b925050602061234e85828601612192565b9150509250929050565b60006020828403121561236a57600080fd5b600061237884828501612168565b91505092915050565b60006020828403121561239357600080fd5b60006123a18482850161217d565b91505092915050565b60006123b683836123f4565b60208301905092915050565b60006123ce838361258e565b905092915050565b6123df81612f08565b82525050565b6123ee81612ea9565b82525050565b6123fd81612e97565b82525050565b61240c81612e97565b82525050565b600061241d82612dfc565b6124278185612e37565b935061243283612ddc565b8060005b8381101561246357815161244a88826123aa565b975061245583612e1d565b925050600181019050612436565b5085935050505092915050565b600061247b82612dfc565b6124858185612e48565b935061249083612ddc565b8060005b838110156124c15781516124a888826123aa565b97506124b383612e1d565b925050600181019050612494565b5085935050505092915050565b60006124d982612e07565b6124e38185612e59565b9350836020820285016124f585612dec565b8060005b85811015612531578484038952815161251285826123c2565b945061251d83612e2a565b925060208a019950506001810190506124f9565b50829750879550505050505092915050565b61254c81612ebb565b82525050565b61255b81612ebb565b82525050565b61256a81612ec7565b82525050565b61257981612f1a565b82525050565b61258881612f3e565b82525050565b600061259982612e12565b6125a38185612e6a565b93506125b3818560208601612f95565b6125bc81612fca565b840191505092915050565b60006125d282612e12565b6125dc8185612e7b565b93506125ec818560208601612f95565b6125f581612fca565b840191505092915050565b600061260b82612e12565b6126158185612e8c565b9350612625818560208601612f95565b80840191505092915050565b600061263e603d83612e7b565b91507f546865207573657220697320747279696e6720746f2072657475726e2061206260008301527f6f6f6b20776869636820646f65736e27742065786973742079657420210000006020830152604082019050919050565b60006126a4602383612e7b565b91507f5468652072657175657374656420626f6f6b20646f65736e277420657869737460008301527f73202100000000000000000000000000000000000000000000000000000000006020830152604082019050919050565b600061270a602e83612e7b565b91507f536f727279207468657265206973206e6f7420656e6f75676820636f756e747360008301527f206f662074686520626f6f6b20210000000000000000000000000000000000006020830152604082019050919050565b6000612770602083612e7b565b91507f546865207065726d697420766572696669636174696f6e206661696c656420216000830152602082019050919050565b60006127b0602d83612e7b565b91507f536f727279207468657265206973206e6f7420656e6f75676820636f756e742060008301527f6f662074686520626f6f6b2021000000000000000000000000000000000000006020830152604082019050919050565b6000612816602383612e7b565b91507f536f7272792074686520626f6f6b20646f65736e27742065786973747320796560008301527f74202100000000000000000000000000000000000000000000000000000000006020830152604082019050919050565b600061287c603883612e7b565b91507f536f7272792074686520757365722068617320616c726561647920626f72726f60008301527f776564206f6e6520636f7079206f662074686520626f6f6b00000000000000006020830152604082019050919050565b60006128e2602383612e7b565b91507f546865207573657220686176656e27742072656e746564207468617420626f6f60008301527f6b202100000000000000000000000000000000000000000000000000000000006020830152604082019050919050565b60006080830160008301518482036000860152612958828261258e565b915050602083015161296d60208601826129b4565b5060408301516129806040860182612543565b50606083015184820360608601526129988282612412565b9150508091505092915050565b6129ae81612ef1565b82525050565b6129bd81612efb565b82525050565b6129cc81612efb565b82525050565b60006129de8284612600565b915081905092915050565b60006020820190506129fe6000830184612403565b92915050565b6000602082019050612a1960008301846123d6565b92915050565b6000602082019050612a3460008301846123e5565b92915050565b6000606082019050612a4f60008301866123d6565b612a5c60208301856123d6565b612a6960408301846129a5565b949350505050565b600060e082019050612a86600083018a6123d6565b612a9360208301896123d6565b612aa060408301886129a5565b612aad60608301876129a5565b612aba60808301866129c3565b612ac760a0830185612561565b612ad460c0830184612561565b98975050505050505050565b600061010082019050612af6600083018b6123d6565b612b03602083018a6123d6565b612b1060408301896129a5565b612b1d60608301886129a5565b612b2a60808301876129c3565b612b3760a0830186612561565b612b4460c0830185612561565b612b5160e08301846129a5565b9998505050505050505050565b6000604082019050612b7360008301856123d6565b612b8060208301846129a5565b9392505050565b60006020820190508181036000830152612ba18184612470565b905092915050565b60006020820190508181036000830152612bc381846124ce565b905092915050565b6000602082019050612be06000830184612552565b92915050565b6000602082019050612bfb6000830184612570565b92915050565b6000602082019050612c16600083018461257f565b92915050565b60006020820190508181036000830152612c3681846125c7565b905092915050565b60006020820190508181036000830152612c5781612631565b9050919050565b60006020820190508181036000830152612c7781612697565b9050919050565b60006020820190508181036000830152612c97816126fd565b9050919050565b60006020820190508181036000830152612cb781612763565b9050919050565b60006020820190508181036000830152612cd7816127a3565b9050919050565b60006020820190508181036000830152612cf781612809565b9050919050565b60006020820190508181036000830152612d178161286f565b9050919050565b60006020820190508181036000830152612d37816128d5565b9050919050565b60006020820190508181036000830152612d58818461293b565b905092915050565b6000602082019050612d7560008301846129a5565b92915050565b6000604051905081810181811067ffffffffffffffff82111715612da257612da1612fc8565b5b8060405250919050565b600067ffffffffffffffff821115612dc757612dc6612fc8565b5b601f19601f8301169050602081019050919050565b6000819050602082019050919050565b6000819050602082019050919050565b600081519050919050565b600081519050919050565b600081519050919050565b6000602082019050919050565b6000602082019050919050565b600082825260208201905092915050565b600082825260208201905092915050565b600082825260208201905092915050565b600082825260208201905092915050565b600082825260208201905092915050565b600081905092915050565b6000612ea282612ed1565b9050919050565b6000612eb482612ed1565b9050919050565b60008115159050919050565b6000819050919050565b600073ffffffffffffffffffffffffffffffffffffffff82169050919050565b6000819050919050565b600060ff82169050919050565b6000612f1382612f62565b9050919050565b6000612f2582612f2c565b9050919050565b6000612f3782612ed1565b9050919050565b6000612f4982612f50565b9050919050565b6000612f5b82612ed1565b9050919050565b6000612f6d82612f74565b9050919050565b6000612f7f82612ed1565b9050919050565b82818337600083830152505050565b60005b83811015612fb3578082015181840152602081019050612f98565b83811115612fc2576000848401525b50505050565bfe5b6000601f19601f8301169050919050565b612fe481612e97565b8114612fef57600080fd5b50565b612ffb81612ebb565b811461300657600080fd5b50565b61301281612ec7565b811461301d57600080fd5b50565b61302981612ef1565b811461303457600080fd5b50565b61304081612efb565b811461304b57600080fd5b5056fe4f776e61626c653a206e6577206f776e657220697320746865207a65726f2061646472657373a264697066735822122034f9b8f73a3243ff49e784f2231b386acea008c7f7a7d5837436e142fea26bb164736f6c63430007050033",
  "source": "// SPDX-License-Identifier: UNLICENSED\npragma experimental ABIEncoderV2;\npragma solidity >=0.7.0;\n\nimport \"@openzeppelin/contracts/access/Ownable.sol\";\nimport \"@openzeppelin/contracts/token/ERC20/IERC20.sol\";\nimport \"./LIBWrapper.sol\";\nimport \"./LIB.sol\";\n\ncontract BookLibrary is Ownable {\n  LIB public LIBToken;\n  LIBWrapper public LIBWrapperContract;\n\n  address payable public wrapperAddress;\n  uint public rent = 1000000000000;\n\n  struct Book {\n      string id;\n      uint8 count;\n      bool exists;\n      address[] borrowers;\n  }\n\n  string[] public booksStored;\n  mapping (bytes32 => Book) private books;\n  mapping (bytes32 => mapping (address => bool)) private userBooks; // turn it book > user > bool\n\n  // Events\n  event BookAdded(string name);\n  event BookBorrowed(string name);\n  event BookReturned(string name);\n\n  constructor(address LIBTokenAddress, address payable LIBWrapperAddress) public {\n    LIBToken = LIB(LIBTokenAddress);\n    LIBWrapperContract = LIBWrapper(LIBWrapperAddress);\n    wrapperAddress = LIBWrapperAddress;\n  }\n\n  // Getters\n  function getStoredBooks () public view returns (string[] memory) {\n      return booksStored;\n  }\n\n  function getBorrowers(string memory _id) public view returns (address[] memory) {\n    bytes32 bookHash = keccak256(abi.encodePacked(_id));\n    require(books[bookHash].exists, \"The requested book doesn't exists !\");\n    return books[bookHash].borrowers;\n  }\n  // Interactions\n  function addBook(string memory _id, uint8 _count) public onlyOwner {\n    bytes32 bookHash = keccak256(abi.encodePacked(_id));\n    bool exists = books[bookHash].exists;\n\n    if (!exists) {\n      address[] memory borrowers;\n      Book memory newBook = Book({ id: _id, count: _count, exists: true, borrowers: borrowers });\n\n      booksStored.push(_id);\n      books[bookHash] = newBook;\n    } else {\n      books[bookHash].count += 1;\n    }\n\n    emit BookAdded(_id);\n  }\n\n  function borrowBook(string memory _id) public {\n    bytes32 bookHash = keccak256(abi.encodePacked(_id));\n\n    require(books[bookHash].exists, \"Sorry the book doesn't exists yet !\");\n    require(books[bookHash].count != 0, \"Sorry there is not enough counts of the book !\");\n    require(!userBooks[bookHash][msg.sender], \"Sorry the user has already borrowed one copy of the book\");\n\n    LIBToken.transferFrom(msg.sender, address(this), rent);\n\n    books[bookHash].count -= 1;\n    books[bookHash].borrowers.push(msg.sender);\n\n    userBooks[bookHash][msg.sender] = true;\n    emit BookBorrowed(_id);\n  }\n\n  function borrowBookBySignature(string memory _id, uint256 _value, uint256 _deadline, uint8 _v, bytes32 _r, bytes32 _s) public {\n    bytes32 bookHash = keccak256(abi.encodePacked(_id));\n\n    require(books[bookHash].exists, \"Sorry the book doesn't exists yet !\");\n    require(books[bookHash].count != 0, \"Sorry there is not enough count of the book !\");\n    require(!userBooks[bookHash][msg.sender], \"Sorry the user has already borrowed one copy of the book\");\n\n    uint nonce = LIBToken.nonces(msg.sender);\n    require( LIBToken.checkPermit(msg.sender, address(this), _value, _deadline, _v,_r,_s, nonce) == msg.sender, \"The permit verification failed !\");\n\n    LIBToken.permit(msg.sender, address(this), _value, _deadline, _v,_r,_s);\n\t\tLIBToken.transferFrom(msg.sender, address(this), rent);\n\n    books[bookHash].count -= 1;\n    books[bookHash].borrowers.push(msg.sender);\n\n    userBooks[bookHash][msg.sender] = true;\n    emit BookBorrowed(_id);\n  }\n\n  function withdrawLibraryAmount() public onlyOwner {\n      uint256 libraryAmount = LIBToken.balanceOf(address(this));\n      LIBToken.approve(wrapperAddress, libraryAmount);\n\n      LIBWrapperContract.unwrap(libraryAmount);\n  }\n\n  function returnBook(string memory _id, uint8 count) public {\n    bytes32 bookHash = keccak256(abi.encodePacked(_id));\n\n    require(books[bookHash].exists, \"The user is trying to return a book which doesn't exist yet !\");\n    require(userBooks[bookHash][msg.sender], \"The user haven't rented that book !\");\n\n    books[bookHash].count += count;\n    userBooks[bookHash][msg.sender] = false;\n\n    emit BookReturned(_id);\n  }\n\n  function getBook(string memory _id) public view returns (Book memory) {\n    bytes32 bookHash = keccak256(abi.encodePacked(_id));\n    require(books[bookHash].exists, \"Sorry the book doesn't exists yet !\");\n    return books[bookHash];\n  }\n  // Flags\n  function isAvailable(string memory _id) public view returns (bool) {\n    bytes32 bookHash = keccak256(abi.encodePacked(_id));\n\n    return books[bookHash].count != 0;\n  }\n\n  function isRented(string memory _id) public view returns (bool) {\n    bytes32 bookHash = keccak256(abi.encodePacked(_id));\n    return userBooks[bookHash][msg.sender];\n  }\n  // Fallbacks\n  receive() external payable {}\n}",
  "sourcePath": "/Users/steriostaskudis/Desktop/Training path/books-solidity/contracts/BookLibrary.sol",
  "compiler": {
    "name": "solc",
    "version": "0.7.5+commit.eb77ed08.Emscripten.clang",
    "optimizer": false,
    "runs": 200
  },
  "schemaVersion": "2.3.5",
  "updatedAt": "2021-06-08T07:26:52.976Z"
}