{
  "contractName": "LIB",
  "abi": [
    {
      "inputs": [],
      "stateMutability": "nonpayable",
      "type": "constructor"
    },
    {
      "anonymous": false,
      "inputs": [
        {
          "indexed": true,
          "internalType": "address",
          "name": "owner",
          "type": "address"
        },
        {
          "indexed": true,
          "internalType": "address",
          "name": "spender",
          "type": "address"
        },
        {
          "indexed": false,
          "internalType": "uint256",
          "name": "value",
          "type": "uint256"
        }
      ],
      "name": "Approval",
      "type": "event"
    },
    {
      "anonymous": false,
      "inputs": [
        {
          "indexed": false,
          "internalType": "address",
          "name": "account",
          "type": "address"
        }
      ],
      "name": "Paused",
      "type": "event"
    },
    {
      "anonymous": false,
      "inputs": [
        {
          "indexed": true,
          "internalType": "bytes32",
          "name": "role",
          "type": "bytes32"
        },
        {
          "indexed": true,
          "internalType": "bytes32",
          "name": "previousAdminRole",
          "type": "bytes32"
        },
        {
          "indexed": true,
          "internalType": "bytes32",
          "name": "newAdminRole",
          "type": "bytes32"
        }
      ],
      "name": "RoleAdminChanged",
      "type": "event"
    },
    {
      "anonymous": false,
      "inputs": [
        {
          "indexed": true,
          "internalType": "bytes32",
          "name": "role",
          "type": "bytes32"
        },
        {
          "indexed": true,
          "internalType": "address",
          "name": "account",
          "type": "address"
        },
        {
          "indexed": true,
          "internalType": "address",
          "name": "sender",
          "type": "address"
        }
      ],
      "name": "RoleGranted",
      "type": "event"
    },
    {
      "anonymous": false,
      "inputs": [
        {
          "indexed": true,
          "internalType": "bytes32",
          "name": "role",
          "type": "bytes32"
        },
        {
          "indexed": true,
          "internalType": "address",
          "name": "account",
          "type": "address"
        },
        {
          "indexed": true,
          "internalType": "address",
          "name": "sender",
          "type": "address"
        }
      ],
      "name": "RoleRevoked",
      "type": "event"
    },
    {
      "anonymous": false,
      "inputs": [
        {
          "indexed": true,
          "internalType": "address",
          "name": "from",
          "type": "address"
        },
        {
          "indexed": true,
          "internalType": "address",
          "name": "to",
          "type": "address"
        },
        {
          "indexed": false,
          "internalType": "uint256",
          "name": "value",
          "type": "uint256"
        }
      ],
      "name": "Transfer",
      "type": "event"
    },
    {
      "anonymous": false,
      "inputs": [
        {
          "indexed": false,
          "internalType": "address",
          "name": "account",
          "type": "address"
        }
      ],
      "name": "Unpaused",
      "type": "event"
    },
    {
      "inputs": [],
      "name": "DEFAULT_ADMIN_ROLE",
      "outputs": [
        {
          "internalType": "bytes32",
          "name": "",
          "type": "bytes32"
        }
      ],
      "stateMutability": "view",
      "type": "function"
    },
    {
      "inputs": [],
      "name": "DOMAIN_SEPARATOR",
      "outputs": [
        {
          "internalType": "bytes32",
          "name": "",
          "type": "bytes32"
        }
      ],
      "stateMutability": "view",
      "type": "function"
    },
    {
      "inputs": [],
      "name": "MINTER_ROLE",
      "outputs": [
        {
          "internalType": "bytes32",
          "name": "",
          "type": "bytes32"
        }
      ],
      "stateMutability": "view",
      "type": "function"
    },
    {
      "inputs": [],
      "name": "PAUSER_ROLE",
      "outputs": [
        {
          "internalType": "bytes32",
          "name": "",
          "type": "bytes32"
        }
      ],
      "stateMutability": "view",
      "type": "function"
    },
    {
      "inputs": [],
      "name": "PERMIT_TYPEHASH",
      "outputs": [
        {
          "internalType": "bytes32",
          "name": "",
          "type": "bytes32"
        }
      ],
      "stateMutability": "view",
      "type": "function"
    },
    {
      "inputs": [
        {
          "internalType": "address",
          "name": "owner",
          "type": "address"
        },
        {
          "internalType": "address",
          "name": "spender",
          "type": "address"
        }
      ],
      "name": "allowance",
      "outputs": [
        {
          "internalType": "uint256",
          "name": "",
          "type": "uint256"
        }
      ],
      "stateMutability": "view",
      "type": "function"
    },
    {
      "inputs": [
        {
          "internalType": "address",
          "name": "spender",
          "type": "address"
        },
        {
          "internalType": "uint256",
          "name": "amount",
          "type": "uint256"
        }
      ],
      "name": "approve",
      "outputs": [
        {
          "internalType": "bool",
          "name": "",
          "type": "bool"
        }
      ],
      "stateMutability": "nonpayable",
      "type": "function"
    },
    {
      "inputs": [
        {
          "internalType": "address",
          "name": "account",
          "type": "address"
        }
      ],
      "name": "balanceOf",
      "outputs": [
        {
          "internalType": "uint256",
          "name": "",
          "type": "uint256"
        }
      ],
      "stateMutability": "view",
      "type": "function"
    },
    {
      "inputs": [
        {
          "internalType": "uint256",
          "name": "amount",
          "type": "uint256"
        }
      ],
      "name": "burn",
      "outputs": [],
      "stateMutability": "nonpayable",
      "type": "function"
    },
    {
      "inputs": [
        {
          "internalType": "address",
          "name": "account",
          "type": "address"
        },
        {
          "internalType": "uint256",
          "name": "amount",
          "type": "uint256"
        }
      ],
      "name": "burnFrom",
      "outputs": [],
      "stateMutability": "nonpayable",
      "type": "function"
    },
    {
      "inputs": [],
      "name": "decimals",
      "outputs": [
        {
          "internalType": "uint8",
          "name": "",
          "type": "uint8"
        }
      ],
      "stateMutability": "view",
      "type": "function"
    },
    {
      "inputs": [
        {
          "internalType": "address",
          "name": "spender",
          "type": "address"
        },
        {
          "internalType": "uint256",
          "name": "subtractedValue",
          "type": "uint256"
        }
      ],
      "name": "decreaseAllowance",
      "outputs": [
        {
          "internalType": "bool",
          "name": "",
          "type": "bool"
        }
      ],
      "stateMutability": "nonpayable",
      "type": "function"
    },
    {
      "inputs": [
        {
          "internalType": "bytes32",
          "name": "role",
          "type": "bytes32"
        }
      ],
      "name": "getRoleAdmin",
      "outputs": [
        {
          "internalType": "bytes32",
          "name": "",
          "type": "bytes32"
        }
      ],
      "stateMutability": "view",
      "type": "function"
    },
    {
      "inputs": [
        {
          "internalType": "bytes32",
          "name": "role",
          "type": "bytes32"
        },
        {
          "internalType": "uint256",
          "name": "index",
          "type": "uint256"
        }
      ],
      "name": "getRoleMember",
      "outputs": [
        {
          "internalType": "address",
          "name": "",
          "type": "address"
        }
      ],
      "stateMutability": "view",
      "type": "function"
    },
    {
      "inputs": [
        {
          "internalType": "bytes32",
          "name": "role",
          "type": "bytes32"
        }
      ],
      "name": "getRoleMemberCount",
      "outputs": [
        {
          "internalType": "uint256",
          "name": "",
          "type": "uint256"
        }
      ],
      "stateMutability": "view",
      "type": "function"
    },
    {
      "inputs": [
        {
          "internalType": "bytes32",
          "name": "role",
          "type": "bytes32"
        },
        {
          "internalType": "address",
          "name": "account",
          "type": "address"
        }
      ],
      "name": "grantRole",
      "outputs": [],
      "stateMutability": "nonpayable",
      "type": "function"
    },
    {
      "inputs": [
        {
          "internalType": "bytes32",
          "name": "role",
          "type": "bytes32"
        },
        {
          "internalType": "address",
          "name": "account",
          "type": "address"
        }
      ],
      "name": "hasRole",
      "outputs": [
        {
          "internalType": "bool",
          "name": "",
          "type": "bool"
        }
      ],
      "stateMutability": "view",
      "type": "function"
    },
    {
      "inputs": [
        {
          "internalType": "address",
          "name": "spender",
          "type": "address"
        },
        {
          "internalType": "uint256",
          "name": "addedValue",
          "type": "uint256"
        }
      ],
      "name": "increaseAllowance",
      "outputs": [
        {
          "internalType": "bool",
          "name": "",
          "type": "bool"
        }
      ],
      "stateMutability": "nonpayable",
      "type": "function"
    },
    {
      "inputs": [
        {
          "internalType": "address",
          "name": "to",
          "type": "address"
        },
        {
          "internalType": "uint256",
          "name": "amount",
          "type": "uint256"
        }
      ],
      "name": "mint",
      "outputs": [],
      "stateMutability": "nonpayable",
      "type": "function"
    },
    {
      "inputs": [],
      "name": "name",
      "outputs": [
        {
          "internalType": "string",
          "name": "",
          "type": "string"
        }
      ],
      "stateMutability": "view",
      "type": "function"
    },
    {
      "inputs": [
        {
          "internalType": "address",
          "name": "",
          "type": "address"
        }
      ],
      "name": "nonces",
      "outputs": [
        {
          "internalType": "uint256",
          "name": "",
          "type": "uint256"
        }
      ],
      "stateMutability": "view",
      "type": "function"
    },
    {
      "inputs": [],
      "name": "pause",
      "outputs": [],
      "stateMutability": "nonpayable",
      "type": "function"
    },
    {
      "inputs": [],
      "name": "paused",
      "outputs": [
        {
          "internalType": "bool",
          "name": "",
          "type": "bool"
        }
      ],
      "stateMutability": "view",
      "type": "function"
    },
    {
      "inputs": [
        {
          "internalType": "bytes32",
          "name": "role",
          "type": "bytes32"
        },
        {
          "internalType": "address",
          "name": "account",
          "type": "address"
        }
      ],
      "name": "renounceRole",
      "outputs": [],
      "stateMutability": "nonpayable",
      "type": "function"
    },
    {
      "inputs": [
        {
          "internalType": "bytes32",
          "name": "role",
          "type": "bytes32"
        },
        {
          "internalType": "address",
          "name": "account",
          "type": "address"
        }
      ],
      "name": "revokeRole",
      "outputs": [],
      "stateMutability": "nonpayable",
      "type": "function"
    },
    {
      "inputs": [],
      "name": "symbol",
      "outputs": [
        {
          "internalType": "string",
          "name": "",
          "type": "string"
        }
      ],
      "stateMutability": "view",
      "type": "function"
    },
    {
      "inputs": [],
      "name": "totalSupply",
      "outputs": [
        {
          "internalType": "uint256",
          "name": "",
          "type": "uint256"
        }
      ],
      "stateMutability": "view",
      "type": "function"
    },
    {
      "inputs": [
        {
          "internalType": "address",
          "name": "recipient",
          "type": "address"
        },
        {
          "internalType": "uint256",
          "name": "amount",
          "type": "uint256"
        }
      ],
      "name": "transfer",
      "outputs": [
        {
          "internalType": "bool",
          "name": "",
          "type": "bool"
        }
      ],
      "stateMutability": "nonpayable",
      "type": "function"
    },
    {
      "inputs": [
        {
          "internalType": "address",
          "name": "sender",
          "type": "address"
        },
        {
          "internalType": "address",
          "name": "recipient",
          "type": "address"
        },
        {
          "internalType": "uint256",
          "name": "amount",
          "type": "uint256"
        }
      ],
      "name": "transferFrom",
      "outputs": [
        {
          "internalType": "bool",
          "name": "",
          "type": "bool"
        }
      ],
      "stateMutability": "nonpayable",
      "type": "function"
    },
    {
      "inputs": [],
      "name": "unpause",
      "outputs": [],
      "stateMutability": "nonpayable",
      "type": "function"
    },
    {
      "inputs": [
        {
          "internalType": "address",
          "name": "owner",
          "type": "address"
        },
        {
          "internalType": "address",
          "name": "spender",
          "type": "address"
        },
        {
          "internalType": "uint256",
          "name": "value",
          "type": "uint256"
        },
        {
          "internalType": "uint256",
          "name": "deadline",
          "type": "uint256"
        },
        {
          "internalType": "uint8",
          "name": "v",
          "type": "uint8"
        },
        {
          "internalType": "bytes32",
          "name": "r",
          "type": "bytes32"
        },
        {
          "internalType": "bytes32",
          "name": "s",
          "type": "bytes32"
        }
      ],
      "name": "permit",
      "outputs": [],
      "stateMutability": "nonpayable",
      "type": "function"
    },
    {
      "inputs": [
        {
          "internalType": "address",
          "name": "owner",
          "type": "address"
        },
        {
          "internalType": "address",
          "name": "spender",
          "type": "address"
        },
        {
          "internalType": "uint256",
          "name": "value",
          "type": "uint256"
        },
        {
          "internalType": "uint256",
          "name": "deadline",
          "type": "uint256"
        },
        {
          "internalType": "uint8",
          "name": "v",
          "type": "uint8"
        },
        {
          "internalType": "bytes32",
          "name": "r",
          "type": "bytes32"
        },
        {
          "internalType": "bytes32",
          "name": "s",
          "type": "bytes32"
        },
        {
          "internalType": "uint256",
          "name": "nonce",
          "type": "uint256"
        }
      ],
      "name": "checkPermit",
      "outputs": [
        {
          "internalType": "address",
          "name": "",
          "type": "address"
        }
      ],
      "stateMutability": "view",
      "type": "function"
    }
  ],
  "bytecode": "0x60806040523480156200001157600080fd5b506040518060400160405280600d81526020017f4c69627261727920546f6b656e000000000000000000000000000000000000008152506040518060400160405280600381526020017f4c494200000000000000000000000000000000000000000000000000000000008152508181816004908051906020019062000098929190620003fc565b508060059080519060200190620000b1929190620003fc565b506012600660006101000a81548160ff021916908360ff16021790555050506000600660016101000a81548160ff0219169083151502179055506200010f6000801b620001036200026660201b60201c565b6200026e60201b60201c565b620001507f9f2df0fed2c77648de5860a4cc508cd0818c85b8b8a1ab4ceeef8d981c8956a6620001446200026660201b60201c565b6200026e60201b60201c565b620001917f65d7a28e3265b37a6474929f336521b332c1681b933f6cb9f3376673440d862a620001856200026660201b60201c565b6200026e60201b60201c565b50507f91ab3d17e3a50a9d89e63fd30b92be7f5336b03b287bb946787a83a9d62a27666040518060400160405280600d81526020017f4c69627261727920546f6b656e00000000000000000000000000000000000000815250805190602001206040518060400160405280600181526020017f31000000000000000000000000000000000000000000000000000000000000008152508051906020012030604051602001620002449493929190620004d4565b604051602081830303815290604052805190602001206007819055506200055f565b600033905090565b6200028082826200028460201b60201c565b5050565b620002b2816000808581526020019081526020016000206000016200032760201b620013581790919060201c565b156200032357620002c86200026660201b60201c565b73ffffffffffffffffffffffffffffffffffffffff168173ffffffffffffffffffffffffffffffffffffffff16837f2f8788117e7eff1d82e926ec794901d17c78024a50270940304540a733656f0d60405160405180910390a45b5050565b600062000357836000018373ffffffffffffffffffffffffffffffffffffffff1660001b6200035f60201b60201c565b905092915050565b6000620003738383620003d960201b60201c565b620003ce578260000182908060018154018082558091505060019003906000526020600020016000909190919091505582600001805490508360010160008481526020019081526020016000208190555060019050620003d3565b600090505b92915050565b600080836001016000848152602001908152602001600020541415905092915050565b828054600181600116156101000203166002900490600052602060002090601f01602090048101928262000434576000855562000480565b82601f106200044f57805160ff191683800117855562000480565b8280016001018555821562000480579182015b828111156200047f57825182559160200191906001019062000462565b5b5090506200048f919062000493565b5090565b5b80821115620004ae57600081600090555060010162000494565b5090565b620004bd8162000521565b82525050565b620004ce8162000535565b82525050565b6000608082019050620004eb6000830187620004c3565b620004fa6020830186620004c3565b620005096040830185620004c3565b620005186060830184620004b2565b95945050505050565b60006200052e826200053f565b9050919050565b6000819050919050565b600073ffffffffffffffffffffffffffffffffffffffff82169050919050565b612eb1806200056f6000396000f3fe608060405234801561001057600080fd5b50600436106101f05760003560e01c806379cc67901161010f578063a9059cbb116100a2578063d539139311610071578063d5391393146105e1578063d547741f146105ff578063dd62ed3e1461061b578063e63ab1e91461064b576101f0565b8063a9059cbb14610535578063b107d66014610565578063ca15c87314610595578063d505accf146105c5576101f0565b806391d14854116100de57806391d148541461049957806395d89b41146104c9578063a217fddf146104e7578063a457c2d714610505576101f0565b806379cc6790146104135780637ecebe001461042f5780638456cb591461045f5780639010d07c14610469576101f0565b80633644e5151161018757806340c10f191161015657806340c10f191461038d57806342966c68146103a95780635c975abb146103c557806370a08231146103e3576101f0565b80633644e5151461031957806336568abe1461033757806339509351146103535780633f4ba83a14610383576101f0565b8063248a9ca3116101c3578063248a9ca3146102915780632f2ff15d146102c157806330adf81f146102dd578063313ce567146102fb576101f0565b806306fdde03146101f5578063095ea7b31461021357806318160ddd1461024357806323b872dd14610261575b600080fd5b6101fd610669565b60405161020a91906129cb565b60405180910390f35b61022d60048036038101906102289190612616565b61070b565b60405161023a91906128ef565b60405180910390f35b61024b610729565b6040516102589190612a2d565b60405180910390f35b61027b60048036038101906102769190612477565b610733565b60405161028891906128ef565b60405180910390f35b6102ab60048036038101906102a69190612652565b61080c565b6040516102b8919061290a565b60405180910390f35b6102db60048036038101906102d6919061267b565b61082b565b005b6102e56108b4565b6040516102f2919061290a565b60405180910390f35b6103036108db565b6040516103109190612a48565b60405180910390f35b6103216108f2565b60405161032e919061290a565b60405180910390f35b610351600480360381019061034c919061267b565b6108f8565b005b61036d60048036038101906103689190612616565b610991565b60405161037a91906128ef565b60405180910390f35b61038b610a44565b005b6103a760048036038101906103a29190612616565b610ad4565b005b6103c360048036038101906103be91906126f3565b610b68565b005b6103cd610b7c565b6040516103da91906128ef565b60405180910390f35b6103fd60048036038101906103f89190612412565b610b93565b60405161040a9190612a2d565b60405180910390f35b61042d60048036038101906104289190612616565b610bdc565b005b61044960048036038101906104449190612412565b610c3e565b6040516104569190612a2d565b60405180910390f35b610467610c56565b005b610483600480360381019061047e91906126b7565b610ce6565b60405161049091906128d4565b60405180910390f35b6104b360048036038101906104ae919061267b565b610d17565b6040516104c091906128ef565b60405180910390f35b6104d1610d48565b6040516104de91906129cb565b60405180910390f35b6104ef610dea565b6040516104fc919061290a565b60405180910390f35b61051f600480360381019061051a9190612616565b610df1565b60405161052c91906128ef565b60405180910390f35b61054f600480360381019061054a9190612616565b610ebe565b60405161055c91906128ef565b60405180910390f35b61057f600480360381019061057a9190612564565b610edc565b60405161058c91906128d4565b60405180910390f35b6105af60048036038101906105aa9190612652565b610fb8565b6040516105bc9190612a2d565b60405180910390f35b6105df60048036038101906105da91906124c6565b610fde565b005b6105e9611200565b6040516105f6919061290a565b60405180910390f35b6106196004803603810190610614919061267b565b611224565b005b6106356004803603810190610630919061243b565b6112ad565b6040516106429190612a2d565b60405180910390f35b610653611334565b604051610660919061290a565b60405180910390f35b606060048054600181600116156101000203166002900480601f0160208091040260200160405190810160405280929190818152602001828054600181600116156101000203166002900480156107015780601f106106d657610100808354040283529160200191610701565b820191906000526020600020905b8154815290600101906020018083116106e457829003601f168201915b5050505050905090565b600061071f610718611388565b8484611390565b6001905092915050565b6000600354905090565b6000610740848484611587565b6108018461074c611388565b6107fc85604051806060016040528060288152602001612cdb60289139600260008b73ffffffffffffffffffffffffffffffffffffffff1673ffffffffffffffffffffffffffffffffffffffff16815260200190815260200160002060006107b2611388565b73ffffffffffffffffffffffffffffffffffffffff1673ffffffffffffffffffffffffffffffffffffffff1681526020019081526020016000205461184c9092919063ffffffff16565b611390565b600190509392505050565b6000806000838152602001908152602001600020600201549050919050565b6108516000808481526020019081526020016000206002015461084c611388565b610d17565b6108a6576040517f08c379a000000000000000000000000000000000000000000000000000000000815260040180806020018281038252602f815260200180612bd9602f913960400191505060405180910390fd5b6108b08282611906565b5050565b7f6e71edae12b1b97f4d1f60370fef10105fa2faae0126114a169c64845d6126c960001b81565b6000600660009054906101000a900460ff16905090565b60075481565b610900611388565b73ffffffffffffffffffffffffffffffffffffffff168173ffffffffffffffffffffffffffffffffffffffff1614610983576040517f08c379a000000000000000000000000000000000000000000000000000000000815260040180806020018281038252602f815260200180612e23602f913960400191505060405180910390fd5b61098d8282611999565b5050565b6000610a3a61099e611388565b84610a3585600260006109af611388565b73ffffffffffffffffffffffffffffffffffffffff1673ffffffffffffffffffffffffffffffffffffffff16815260200190815260200160002060008973ffffffffffffffffffffffffffffffffffffffff1673ffffffffffffffffffffffffffffffffffffffff16815260200190815260200160002054611a2c90919063ffffffff16565b611390565b6001905092915050565b610a757f65d7a28e3265b37a6474929f336521b332c1681b933f6cb9f3376673440d862a610a70611388565b610d17565b610aca576040517f08c379a0000000000000000000000000000000000000000000000000000000008152600401808060200182810382526039815260200180612c2a6039913960400191505060405180910390fd5b610ad2611ab4565b565b610b057f9f2df0fed2c77648de5860a4cc508cd0818c85b8b8a1ab4ceeef8d981c8956a6610b00611388565b610d17565b610b5a576040517f08c379a0000000000000000000000000000000000000000000000000000000008152600401808060200182810382526036815260200180612d036036913960400191505060405180910390fd5b610b648282611b9f565b5050565b610b79610b73611388565b82611d68565b50565b6000600660019054906101000a900460ff16905090565b6000600160008373ffffffffffffffffffffffffffffffffffffffff1673ffffffffffffffffffffffffffffffffffffffff168152602001908152602001600020549050919050565b6000610c1b82604051806060016040528060248152602001612d3960249139610c0c86610c07611388565b6112ad565b61184c9092919063ffffffff16565b9050610c2f83610c29611388565b83611390565b610c398383611d68565b505050565b60086020528060005260406000206000915090505481565b610c877f65d7a28e3265b37a6474929f336521b332c1681b933f6cb9f3376673440d862a610c82611388565b610d17565b610cdc576040517f08c379a0000000000000000000000000000000000000000000000000000000008152600401808060200182810382526037815260200180612dc76037913960400191505060405180910390fd5b610ce4611f2e565b565b6000610d0f8260008086815260200190815260200160002060000161201a90919063ffffffff16565b905092915050565b6000610d408260008086815260200190815260200160002060000161203490919063ffffffff16565b905092915050565b606060058054600181600116156101000203166002900480601f016020809104026020016040519081016040528092919081815260200182805460018160011615610100020316600290048015610de05780601f10610db557610100808354040283529160200191610de0565b820191906000526020600020905b815481529060010190602001808311610dc357829003601f168201915b5050505050905090565b6000801b81565b6000610eb4610dfe611388565b84610eaf85604051806060016040528060258152602001612dfe6025913960026000610e28611388565b73ffffffffffffffffffffffffffffffffffffffff1673ffffffffffffffffffffffffffffffffffffffff16815260200190815260200160002060008a73ffffffffffffffffffffffffffffffffffffffff1673ffffffffffffffffffffffffffffffffffffffff1681526020019081526020016000205461184c9092919063ffffffff16565b611390565b6001905092915050565b6000610ed2610ecb611388565b8484611587565b6001905092915050565b600060016007547f6e71edae12b1b97f4d1f60370fef10105fa2faae0126114a169c64845d6126c960001b8b8b8b878c604051602001610f2196959493929190612925565b60405160208183030381529060405280519060200120604051602001610f4892919061289d565b6040516020818303038152906040528051906020012086868660405160008152602001604052604051610f7e9493929190612986565b6020604051602081039080840390855afa158015610fa0573d6000803e3d6000fd5b50505060206040510351905098975050505050505050565b6000610fd7600080848152602001908152602001600020600001612064565b9050919050565b42841015611021576040517f08c379a0000000000000000000000000000000000000000000000000000000008152600401611018906129ed565b60405180910390fd5b60006007547f6e71edae12b1b97f4d1f60370fef10105fa2faae0126114a169c64845d6126c960001b898989600860008e73ffffffffffffffffffffffffffffffffffffffff1673ffffffffffffffffffffffffffffffffffffffff1681526020019081526020016000206000815480929190600101919050558a6040516020016110b196959493929190612925565b604051602081830303815290604052805190602001206040516020016110d892919061289d565b6040516020818303038152906040528051906020012090506000600182868686604051600081526020016040526040516111159493929190612986565b6020604051602081039080840390855afa158015611137573d6000803e3d6000fd5b505050602060405103519050600073ffffffffffffffffffffffffffffffffffffffff168173ffffffffffffffffffffffffffffffffffffffff16141580156111ab57508873ffffffffffffffffffffffffffffffffffffffff168173ffffffffffffffffffffffffffffffffffffffff16145b6111ea576040517f08c379a00000000000000000000000000000000000000000000000000000000081526004016111e190612a0d565b60405180910390fd5b6111f5898989611390565b505050505050505050565b7f9f2df0fed2c77648de5860a4cc508cd0818c85b8b8a1ab4ceeef8d981c8956a681565b61124a60008084815260200190815260200160002060020154611245611388565b610d17565b61129f576040517f08c379a0000000000000000000000000000000000000000000000000000000008152600401808060200182810382526030815260200180612cab6030913960400191505060405180910390fd5b6112a98282611999565b5050565b6000600260008473ffffffffffffffffffffffffffffffffffffffff1673ffffffffffffffffffffffffffffffffffffffff16815260200190815260200160002060008373ffffffffffffffffffffffffffffffffffffffff1673ffffffffffffffffffffffffffffffffffffffff16815260200190815260200160002054905092915050565b7f65d7a28e3265b37a6474929f336521b332c1681b933f6cb9f3376673440d862a81565b6000611380836000018373ffffffffffffffffffffffffffffffffffffffff1660001b612079565b905092915050565b600033905090565b600073ffffffffffffffffffffffffffffffffffffffff168373ffffffffffffffffffffffffffffffffffffffff161415611416576040517f08c379a0000000000000000000000000000000000000000000000000000000008152600401808060200182810382526024815260200180612da36024913960400191505060405180910390fd5b600073ffffffffffffffffffffffffffffffffffffffff168273ffffffffffffffffffffffffffffffffffffffff16141561149c576040517f08c379a0000000000000000000000000000000000000000000000000000000008152600401808060200182810382526022815260200180612c636022913960400191505060405180910390fd5b80600260008573ffffffffffffffffffffffffffffffffffffffff1673ffffffffffffffffffffffffffffffffffffffff16815260200190815260200160002060008473ffffffffffffffffffffffffffffffffffffffff1673ffffffffffffffffffffffffffffffffffffffff168152602001908152602001600020819055508173ffffffffffffffffffffffffffffffffffffffff168373ffffffffffffffffffffffffffffffffffffffff167f8c5be1e5ebec7d5bd14f71427d1e84f3dd0314c0f7b2291e5b200ac8c7c3b925836040518082815260200191505060405180910390a3505050565b600073ffffffffffffffffffffffffffffffffffffffff168373ffffffffffffffffffffffffffffffffffffffff16141561160d576040517f08c379a0000000000000000000000000000000000000000000000000000000008152600401808060200182810382526025815260200180612d7e6025913960400191505060405180910390fd5b600073ffffffffffffffffffffffffffffffffffffffff168273ffffffffffffffffffffffffffffffffffffffff161415611693576040517f08c379a0000000000000000000000000000000000000000000000000000000008152600401808060200182810382526023815260200180612bb66023913960400191505060405180910390fd5b61169e8383836120e9565b61170a81604051806060016040528060268152602001612c8560269139600160008773ffffffffffffffffffffffffffffffffffffffff1673ffffffffffffffffffffffffffffffffffffffff1681526020019081526020016000205461184c9092919063ffffffff16565b600160008573ffffffffffffffffffffffffffffffffffffffff1673ffffffffffffffffffffffffffffffffffffffff1681526020019081526020016000208190555061179f81600160008573ffffffffffffffffffffffffffffffffffffffff1673ffffffffffffffffffffffffffffffffffffffff16815260200190815260200160002054611a2c90919063ffffffff16565b600160008473ffffffffffffffffffffffffffffffffffffffff1673ffffffffffffffffffffffffffffffffffffffff168152602001908152602001600020819055508173ffffffffffffffffffffffffffffffffffffffff168373ffffffffffffffffffffffffffffffffffffffff167fddf252ad1be2c89b69c2b068fc378daa952ba7f163c4a11628f55a4df523b3ef836040518082815260200191505060405180910390a3505050565b60008383111582906118f9576040517f08c379a00000000000000000000000000000000000000000000000000000000081526004018080602001828103825283818151815260200191508051906020019080838360005b838110156118be5780820151818401526020810190506118a3565b50505050905090810190601f1680156118eb5780820380516001836020036101000a031916815260200191505b509250505060405180910390fd5b5082840390509392505050565b61192d8160008085815260200190815260200160002060000161135890919063ffffffff16565b156119955761193a611388565b73ffffffffffffffffffffffffffffffffffffffff168173ffffffffffffffffffffffffffffffffffffffff16837f2f8788117e7eff1d82e926ec794901d17c78024a50270940304540a733656f0d60405160405180910390a45b5050565b6119c0816000808581526020019081526020016000206000016120f990919063ffffffff16565b15611a28576119cd611388565b73ffffffffffffffffffffffffffffffffffffffff168173ffffffffffffffffffffffffffffffffffffffff16837ff6391f5c32d9c69d2a47ea670b442974b53935d1edc7fd64eb21e047a839171b60405160405180910390a45b5050565b600080828401905083811015611aaa576040517f08c379a000000000000000000000000000000000000000000000000000000000815260040180806020018281038252601b8152602001807f536166654d6174683a206164646974696f6e206f766572666c6f77000000000081525060200191505060405180910390fd5b8091505092915050565b611abc610b7c565b611b2e576040517f08c379a00000000000000000000000000000000000000000000000000000000081526004018080602001828103825260148152602001807f5061757361626c653a206e6f742070617573656400000000000000000000000081525060200191505060405180910390fd5b6000600660016101000a81548160ff0219169083151502179055507f5db9ee0a495bf2e6ff9c91a7834c1ba4fdd244a5e8aa4e537bd38aeae4b073aa611b72611388565b604051808273ffffffffffffffffffffffffffffffffffffffff16815260200191505060405180910390a1565b600073ffffffffffffffffffffffffffffffffffffffff168273ffffffffffffffffffffffffffffffffffffffff161415611c42576040517f08c379a000000000000000000000000000000000000000000000000000000000815260040180806020018281038252601f8152602001807f45524332303a206d696e7420746f20746865207a65726f20616464726573730081525060200191505060405180910390fd5b611c4e600083836120e9565b611c6381600354611a2c90919063ffffffff16565b600381905550611cbb81600160008573ffffffffffffffffffffffffffffffffffffffff1673ffffffffffffffffffffffffffffffffffffffff16815260200190815260200160002054611a2c90919063ffffffff16565b600160008473ffffffffffffffffffffffffffffffffffffffff1673ffffffffffffffffffffffffffffffffffffffff168152602001908152602001600020819055508173ffffffffffffffffffffffffffffffffffffffff16600073ffffffffffffffffffffffffffffffffffffffff167fddf252ad1be2c89b69c2b068fc378daa952ba7f163c4a11628f55a4df523b3ef836040518082815260200191505060405180910390a35050565b600073ffffffffffffffffffffffffffffffffffffffff168273ffffffffffffffffffffffffffffffffffffffff161415611dee576040517f08c379a0000000000000000000000000000000000000000000000000000000008152600401808060200182810382526021815260200180612d5d6021913960400191505060405180910390fd5b611dfa826000836120e9565b611e6681604051806060016040528060228152602001612c0860229139600160008673ffffffffffffffffffffffffffffffffffffffff1673ffffffffffffffffffffffffffffffffffffffff1681526020019081526020016000205461184c9092919063ffffffff16565b600160008473ffffffffffffffffffffffffffffffffffffffff1673ffffffffffffffffffffffffffffffffffffffff16815260200190815260200160002081905550611ebe8160035461212990919063ffffffff16565b600381905550600073ffffffffffffffffffffffffffffffffffffffff168273ffffffffffffffffffffffffffffffffffffffff167fddf252ad1be2c89b69c2b068fc378daa952ba7f163c4a11628f55a4df523b3ef836040518082815260200191505060405180910390a35050565b611f36610b7c565b15611fa9576040517f08c379a00000000000000000000000000000000000000000000000000000000081526004018080602001828103825260108152602001807f5061757361626c653a207061757365640000000000000000000000000000000081525060200191505060405180910390fd5b6001600660016101000a81548160ff0219169083151502179055507f62e78cea01bee320cd4e420270b5ea74000d11b0c9f74754ebdbfc544b05a258611fed611388565b604051808273ffffffffffffffffffffffffffffffffffffffff16815260200191505060405180910390a1565b600061202983600001836121ac565b60001c905092915050565b600061205c836000018373ffffffffffffffffffffffffffffffffffffffff1660001b61222f565b905092915050565b600061207282600001612252565b9050919050565b6000612085838361222f565b6120de5782600001829080600181540180825580915050600190039060005260206000200160009091909190915055826000018054905083600101600084815260200190815260200160002081905550600190506120e3565b600090505b92915050565b6120f4838383612263565b505050565b6000612121836000018373ffffffffffffffffffffffffffffffffffffffff1660001b6122d1565b905092915050565b6000828211156121a1576040517f08c379a000000000000000000000000000000000000000000000000000000000815260040180806020018281038252601e8152602001807f536166654d6174683a207375627472616374696f6e206f766572666c6f77000081525060200191505060405180910390fd5b818303905092915050565b60008183600001805490501161220d576040517f08c379a0000000000000000000000000000000000000000000000000000000008152600401808060200182810382526022815260200180612b946022913960400191505060405180910390fd5b82600001828154811061221c57fe5b9060005260206000200154905092915050565b600080836001016000848152602001908152602001600020541415905092915050565b600081600001805490509050919050565b61226e8383836123b9565b612276610b7c565b156122cc576040517f08c379a000000000000000000000000000000000000000000000000000000000815260040180806020018281038252602a815260200180612e52602a913960400191505060405180910390fd5b505050565b600080836001016000848152602001908152602001600020549050600081146123ad576000600182039050600060018660000180549050039050600086600001828154811061231c57fe5b906000526020600020015490508087600001848154811061233957fe5b906000526020600020018190555060018301876001016000838152602001908152602001600020819055508660000180548061237157fe5b600190038181906000526020600020016000905590558660010160008781526020019081526020016000206000905560019450505050506123b3565b60009150505b92915050565b505050565b6000813590506123cd81612b37565b92915050565b6000813590506123e281612b4e565b92915050565b6000813590506123f781612b65565b92915050565b60008135905061240c81612b7c565b92915050565b60006020828403121561242457600080fd5b6000612432848285016123be565b91505092915050565b6000806040838503121561244e57600080fd5b600061245c858286016123be565b925050602061246d858286016123be565b9150509250929050565b60008060006060848603121561248c57600080fd5b600061249a868287016123be565b93505060206124ab868287016123be565b92505060406124bc868287016123e8565b9150509250925092565b600080600080600080600060e0888a0312156124e157600080fd5b60006124ef8a828b016123be565b97505060206125008a828b016123be565b96505060406125118a828b016123e8565b95505060606125228a828b016123e8565b94505060806125338a828b016123fd565b93505060a06125448a828b016123d3565b92505060c06125558a828b016123d3565b91505092959891949750929550565b600080600080600080600080610100898b03121561258157600080fd5b600061258f8b828c016123be565b98505060206125a08b828c016123be565b97505060406125b18b828c016123e8565b96505060606125c28b828c016123e8565b95505060806125d38b828c016123fd565b94505060a06125e48b828c016123d3565b93505060c06125f58b828c016123d3565b92505060e06126068b828c016123e8565b9150509295985092959890939650565b6000806040838503121561262957600080fd5b6000612637858286016123be565b9250506020612648858286016123e8565b9150509250929050565b60006020828403121561266457600080fd5b6000612672848285016123d3565b91505092915050565b6000806040838503121561268e57600080fd5b600061269c858286016123d3565b92505060206126ad858286016123be565b9150509250929050565b600080604083850312156126ca57600080fd5b60006126d8858286016123d3565b92505060206126e9858286016123e8565b9150509250929050565b60006020828403121561270557600080fd5b6000612713848285016123e8565b91505092915050565b61272581612a8a565b82525050565b61273481612a9c565b82525050565b61274381612aa8565b82525050565b61275a61275582612aa8565b612b1c565b82525050565b600061276b82612a63565b6127758185612a6e565b9350612785818560208601612ae9565b61278e81612b26565b840191505092915050565b60006127a6600283612a7f565b91507f19010000000000000000000000000000000000000000000000000000000000006000830152600282019050919050565b60006127e6601883612a6e565b91507f4552433230576974685065726d69743a204558504952454400000000000000006000830152602082019050919050565b6000612826602283612a6e565b91507f4552433230576974685065726d69743a20494e56414c49445f5349474e41545560008301527f52450000000000000000000000000000000000000000000000000000000000006020830152604082019050919050565b61288881612ad2565b82525050565b61289781612adc565b82525050565b60006128a882612799565b91506128b48285612749565b6020820191506128c48284612749565b6020820191508190509392505050565b60006020820190506128e9600083018461271c565b92915050565b6000602082019050612904600083018461272b565b92915050565b600060208201905061291f600083018461273a565b92915050565b600060c08201905061293a600083018961273a565b612947602083018861271c565b612954604083018761271c565b612961606083018661287f565b61296e608083018561287f565b61297b60a083018461287f565b979650505050505050565b600060808201905061299b600083018761273a565b6129a8602083018661288e565b6129b5604083018561273a565b6129c2606083018461273a565b95945050505050565b600060208201905081810360008301526129e58184612760565b905092915050565b60006020820190508181036000830152612a06816127d9565b9050919050565b60006020820190508181036000830152612a2681612819565b9050919050565b6000602082019050612a42600083018461287f565b92915050565b6000602082019050612a5d600083018461288e565b92915050565b600081519050919050565b600082825260208201905092915050565b600081905092915050565b6000612a9582612ab2565b9050919050565b60008115159050919050565b6000819050919050565b600073ffffffffffffffffffffffffffffffffffffffff82169050919050565b6000819050919050565b600060ff82169050919050565b60005b83811015612b07578082015181840152602081019050612aec565b83811115612b16576000848401525b50505050565b6000819050919050565b6000601f19601f8301169050919050565b612b4081612a8a565b8114612b4b57600080fd5b50565b612b5781612aa8565b8114612b6257600080fd5b50565b612b6e81612ad2565b8114612b7957600080fd5b50565b612b8581612adc565b8114612b9057600080fd5b5056fe456e756d657261626c655365743a20696e646578206f7574206f6620626f756e647345524332303a207472616e7366657220746f20746865207a65726f2061646472657373416363657373436f6e74726f6c3a2073656e646572206d75737420626520616e2061646d696e20746f206772616e7445524332303a206275726e20616d6f756e7420657863656564732062616c616e636545524332305072657365744d696e7465725061757365723a206d75737420686176652070617573657220726f6c6520746f20756e706175736545524332303a20617070726f766520746f20746865207a65726f206164647265737345524332303a207472616e7366657220616d6f756e7420657863656564732062616c616e6365416363657373436f6e74726f6c3a2073656e646572206d75737420626520616e2061646d696e20746f207265766f6b6545524332303a207472616e7366657220616d6f756e74206578636565647320616c6c6f77616e636545524332305072657365744d696e7465725061757365723a206d7573742068617665206d696e74657220726f6c6520746f206d696e7445524332303a206275726e20616d6f756e74206578636565647320616c6c6f77616e636545524332303a206275726e2066726f6d20746865207a65726f206164647265737345524332303a207472616e736665722066726f6d20746865207a65726f206164647265737345524332303a20617070726f76652066726f6d20746865207a65726f206164647265737345524332305072657365744d696e7465725061757365723a206d75737420686176652070617573657220726f6c6520746f20706175736545524332303a2064656372656173656420616c6c6f77616e63652062656c6f77207a65726f416363657373436f6e74726f6c3a2063616e206f6e6c792072656e6f756e636520726f6c657320666f722073656c6645524332305061757361626c653a20746f6b656e207472616e73666572207768696c6520706175736564a2646970667358221220a963e6bc555115b2e1fabb37f8ef82798cdca04ac2aab294eb0ca8202cf48c5664736f6c63430007050033",
  "source": "// SPDX-License-Identifier: UNLICENSED\npragma solidity >=0.7.0;\npragma abicoder v2;\n\nimport \"@openzeppelin/contracts/presets/ERC20PresetMinterPauser.sol\";\n\ncontract LIB is ERC20PresetMinterPauser {\n\n\tbytes32 public DOMAIN_SEPARATOR;\n    // representation of keccak256(\"Permit(address owner,address spender,uint256 value,uint256 nonce,uint256 deadline)\");\n    bytes32 public constant PERMIT_TYPEHASH = 0x6e71edae12b1b97f4d1f60370fef10105fa2faae0126114a169c64845d6126c9;\n    mapping(address => uint256) public nonces;\n\n\tconstructor() ERC20PresetMinterPauser(\"Library Token\", \"LIB\") {\n        DOMAIN_SEPARATOR = keccak256(\n            abi.encode(\n                keccak256(\n                    \"EIP712Domain(string name,string version,address verifyingContract)\"\n                ),\n                keccak256(bytes('Library Token')),\n                keccak256(bytes(\"1\")),\n                address(this)\n            )\n        );\n\t}\n\n\tfunction permit(address owner, address spender, uint256 value, uint256 deadline, uint8 v, bytes32 r, bytes32 s) external {\n        // solhint-disable-next-line\n        require(deadline >= block.timestamp, \"ERC20WithPermit: EXPIRED\");\n\n        bytes32 digest =\n            keccak256(\n                abi.encodePacked(\n                    \"\\x19\\x01\",\n                    DOMAIN_SEPARATOR,\n                    keccak256(\n                        abi.encode(\n                            PERMIT_TYPEHASH,\n                            owner,\n                            spender,\n                            value,\n                            nonces[owner]++,\n                            deadline\n                        )\n                    )\n                )\n            );\n\n        address recoveredAddress = ecrecover(digest, v, r, s);\n        require(\n            recoveredAddress != address(0) && recoveredAddress == owner,\n            \"ERC20WithPermit: INVALID_SIGNATURE\"\n        );\n\n        _approve(owner, spender, value);\n    }\n\n\tfunction checkPermit(address owner, address spender, uint256 value, uint256 deadline, uint8 v, bytes32 r, bytes32 s, uint nonce) external view returns (address) {\n        return ecrecover(keccak256(\n                abi.encodePacked(\n                    \"\\x19\\x01\",\n                    DOMAIN_SEPARATOR,\n                    keccak256(\n                        abi.encode(\n                            PERMIT_TYPEHASH,\n                            owner,\n                            spender,\n                            value,\n                            nonce,\n                            deadline\n                        )\n                    )\n                )\n            ), v, r, s);\n    }\n\n}",
  "sourcePath": "/Users/steriostaskudis/Desktop/Training path/books-solidity/contracts/LIB.sol",
  "compiler": {
    "name": "solc",
    "version": "0.7.5+commit.eb77ed08.Emscripten.clang",
    "optimizer": false,
    "runs": 200
  },
  "schemaVersion": "2.3.5",
  "updatedAt": "2021-06-07T15:13:29.936Z"
}