{
  "contractName": "LIBWrapper",
  "abi": [
    {
      "inputs": [],
      "stateMutability": "nonpayable",
      "type": "constructor"
    },
    {
      "anonymous": false,
      "inputs": [
        {
          "indexed": false,
          "internalType": "address",
          "name": "receiver",
          "type": "address"
        },
        {
          "indexed": false,
          "internalType": "uint256",
          "name": "amount",
          "type": "uint256"
        }
      ],
      "name": "LogETHWrapped",
      "type": "event"
    },
    {
      "anonymous": false,
      "inputs": [
        {
          "indexed": false,
          "internalType": "address",
          "name": "sender",
          "type": "address"
        },
        {
          "indexed": false,
          "internalType": "uint256",
          "name": "amount",
          "type": "uint256"
        }
      ],
      "name": "LogLIBnwrapped",
      "type": "event"
    },
    {
      "anonymous": false,
      "inputs": [
        {
          "indexed": false,
          "internalType": "address",
          "name": "sender",
          "type": "address"
        },
        {
          "indexed": false,
          "internalType": "uint256",
          "name": "amount",
          "type": "uint256"
        }
      ],
      "name": "LogLIBrapped",
      "type": "event"
    },
    {
      "inputs": [],
      "name": "LIBToken",
      "outputs": [
        {
          "internalType": "contract LIB",
          "name": "",
          "type": "address"
        }
      ],
      "stateMutability": "view",
      "type": "function"
    },
    {
      "inputs": [],
      "name": "wrap",
      "outputs": [],
      "stateMutability": "payable",
      "type": "function"
    },
    {
      "inputs": [
        {
          "internalType": "uint256",
          "name": "value",
          "type": "uint256"
        }
      ],
      "name": "unwrap",
      "outputs": [],
      "stateMutability": "nonpayable",
      "type": "function"
    },
    {
      "inputs": [
        {
          "internalType": "bytes32",
          "name": "hashedMessage",
          "type": "bytes32"
        },
        {
          "internalType": "uint8",
          "name": "v",
          "type": "uint8"
        },
        {
          "internalType": "bytes32",
          "name": "r",
          "type": "bytes32"
        },
        {
          "internalType": "bytes32",
          "name": "s",
          "type": "bytes32"
        },
        {
          "internalType": "address",
          "name": "receiver",
          "type": "address"
        }
      ],
      "name": "wrapWithSignature",
      "outputs": [],
      "stateMutability": "payable",
      "type": "function"
    }
  ],
  "bytecode": "0x608060405234801561001057600080fd5b5060405161001d9061007e565b604051809103906000f080158015610039573d6000803e3d6000fd5b506000806101000a81548173ffffffffffffffffffffffffffffffffffffffff021916908373ffffffffffffffffffffffffffffffffffffffff16021790555061008b565b612ab980610c7283390190565b610bd88061009a6000396000f3fe60806040526004361061003f5760003560e01c80631ba3192b146100445780639fe8c07d1461006f578063d46eb1191461008b578063de0e9a3e14610095575b600080fd5b34801561005057600080fd5b506100596100be565b60405161006691906109ba565b60405180910390f35b6100896004803603810190610084919061068f565b6100e2565b005b61009361026b565b005b3480156100a157600080fd5b506100bc60048036038101906100b79190610706565b610376565b005b60008054906101000a900473ffffffffffffffffffffffffffffffffffffffff1681565b60003411610125576040517f08c379a000000000000000000000000000000000000000000000000000000000815260040161011c906109d5565b60405180910390fd5b8073ffffffffffffffffffffffffffffffffffffffff1661014886868686610577565b73ffffffffffffffffffffffffffffffffffffffff161461019e576040517f08c379a0000000000000000000000000000000000000000000000000000000008152600401610195906109f5565b60405180910390fd5b60008054906101000a900473ffffffffffffffffffffffffffffffffffffffff1673ffffffffffffffffffffffffffffffffffffffff166340c10f1982346040518363ffffffff1660e01b81526004016101f992919061094c565b600060405180830381600087803b15801561021357600080fd5b505af1158015610227573d6000803e3d6000fd5b505050507ff5bbfc7c33e2415d8412b58a8857448e349e08f7525154290968f731e86a9039813460405161025c92919061094c565b60405180910390a15050505050565b600034116102ae576040517f08c379a00000000000000000000000000000000000000000000000000000000081526004016102a5906109d5565b60405180910390fd5b60008054906101000a900473ffffffffffffffffffffffffffffffffffffffff1673ffffffffffffffffffffffffffffffffffffffff166340c10f1933346040518363ffffffff1660e01b8152600401610309929190610923565b600060405180830381600087803b15801561032357600080fd5b505af1158015610337573d6000803e3d6000fd5b505050507f2caa41a64629e97e187de9b82fa2f3b43e0c778d4b16b1bab780a7ebf2c66bf0333460405161036c929190610923565b60405180910390a1565b600081116103b9576040517f08c379a00000000000000000000000000000000000000000000000000000000081526004016103b090610a15565b60405180910390fd5b60008054906101000a900473ffffffffffffffffffffffffffffffffffffffff1673ffffffffffffffffffffffffffffffffffffffff166323b872dd3330846040518463ffffffff1660e01b8152600401610416939291906108ec565b602060405180830381600087803b15801561043057600080fd5b505af1158015610444573d6000803e3d6000fd5b505050506040513d601f19601f820116820180604052508101906104689190610666565b5060008054906101000a900473ffffffffffffffffffffffffffffffffffffffff1673ffffffffffffffffffffffffffffffffffffffff166342966c68826040518263ffffffff1660e01b81526004016104c29190610a35565b600060405180830381600087803b1580156104dc57600080fd5b505af11580156104f0573d6000803e3d6000fd5b505050503373ffffffffffffffffffffffffffffffffffffffff166108fc829081150290604051600060405180830381858888f1935050505015801561053a573d6000803e3d6000fd5b507f788d8db8fb90844e2c6ee23a8546c23d1498dfe0b3525f590c692760885efc46338260405161056c929190610923565b60405180910390a150565b6000808560405160200161058b91906108c6565b604051602081830303815290604052805190602001209050600181868686604051600081526020016040526040516105c69493929190610975565b6020604051602081039080840390855afa1580156105e8573d6000803e3d6000fd5b50505060206040510351915050949350505050565b60008135905061060c81610b2f565b92915050565b60008151905061062181610b46565b92915050565b60008135905061063681610b5d565b92915050565b60008135905061064b81610b74565b92915050565b60008135905061066081610b8b565b92915050565b60006020828403121561067857600080fd5b600061068684828501610612565b91505092915050565b600080600080600060a086880312156106a757600080fd5b60006106b588828901610627565b95505060206106c688828901610651565b94505060406106d788828901610627565b93505060606106e888828901610627565b92505060806106f9888289016105fd565b9150509295509295909350565b60006020828403121561071857600080fd5b60006107268482850161063c565b91505092915050565b61073881610acb565b82525050565b61074781610a6c565b82525050565b61075681610a8a565b82525050565b61076d61076882610a8a565b610b25565b82525050565b61077c81610add565b82525050565b600061078f601c83610a61565b91507f19457468657265756d205369676e6564204d6573736167653a0a3332000000006000830152601c82019050919050565b60006107cf601e83610a50565b91507f5765206e65656420746f2077726170206174206c6561737420312077656900006000830152602082019050919050565b600061080f602483610a50565b91507f526563656976657220646f6573206e6f74207369676e656420746865206d657360008301527f73616765000000000000000000000000000000000000000000000000000000006020830152604082019050919050565b6000610875602083610a50565b91507f5765206e65656420746f20756e77726170206174206c656173742031207765696000830152602082019050919050565b6108b181610ab4565b82525050565b6108c081610abe565b82525050565b60006108d182610782565b91506108dd828461075c565b60208201915081905092915050565b6000606082019050610901600083018661072f565b61090e602083018561073e565b61091b60408301846108a8565b949350505050565b6000604082019050610938600083018561072f565b61094560208301846108a8565b9392505050565b6000604082019050610961600083018561073e565b61096e60208301846108a8565b9392505050565b600060808201905061098a600083018761074d565b61099760208301866108b7565b6109a4604083018561074d565b6109b1606083018461074d565b95945050505050565b60006020820190506109cf6000830184610773565b92915050565b600060208201905081810360008301526109ee816107c2565b9050919050565b60006020820190508181036000830152610a0e81610802565b9050919050565b60006020820190508181036000830152610a2e81610868565b9050919050565b6000602082019050610a4a60008301846108a8565b92915050565b600082825260208201905092915050565b600081905092915050565b6000610a7782610a94565b9050919050565b60008115159050919050565b6000819050919050565b600073ffffffffffffffffffffffffffffffffffffffff82169050919050565b6000819050919050565b600060ff82169050919050565b6000610ad682610b01565b9050919050565b6000610ae882610aef565b9050919050565b6000610afa82610a94565b9050919050565b6000610b0c82610b13565b9050919050565b6000610b1e82610a94565b9050919050565b6000819050919050565b610b3881610a6c565b8114610b4357600080fd5b50565b610b4f81610a7e565b8114610b5a57600080fd5b50565b610b6681610a8a565b8114610b7157600080fd5b50565b610b7d81610ab4565b8114610b8857600080fd5b50565b610b9481610abe565b8114610b9f57600080fd5b5056fea264697066735822122054ab5f57cbf159daa04d4582a3d5e3544db68e93126ae140dcbb96e4bd9d6c0c64736f6c6343000705003360806040523480156200001157600080fd5b506040518060400160405280600d81526020017f4c69627261727920546f6b656e000000000000000000000000000000000000008152506040518060400160405280600381526020017f4c4942000000000000000000000000000000000000000000000000000000000081525081818160049080519060200190620000989291906200032f565b508060059080519060200190620000b19291906200032f565b506012600660006101000a81548160ff021916908360ff16021790555050506000600660016101000a81548160ff0219169083151502179055506200010f6000801b620001036200019960201b60201c565b620001a160201b60201c565b620001507f9f2df0fed2c77648de5860a4cc508cd0818c85b8b8a1ab4ceeef8d981c8956a6620001446200019960201b60201c565b620001a160201b60201c565b620001917f65d7a28e3265b37a6474929f336521b332c1681b933f6cb9f3376673440d862a620001856200019960201b60201c565b620001a160201b60201c565b5050620003e5565b600033905090565b620001b38282620001b760201b60201c565b5050565b620001e5816000808581526020019081526020016000206000016200025a60201b62000f161790919060201c565b156200025657620001fb6200019960201b60201c565b73ffffffffffffffffffffffffffffffffffffffff168173ffffffffffffffffffffffffffffffffffffffff16837f2f8788117e7eff1d82e926ec794901d17c78024a50270940304540a733656f0d60405160405180910390a45b5050565b60006200028a836000018373ffffffffffffffffffffffffffffffffffffffff1660001b6200029260201b60201c565b905092915050565b6000620002a683836200030c60201b60201c565b6200030157826000018290806001815401808255809150506001900390600052602060002001600090919091909150558260000180549050836001016000848152602001908152602001600020819055506001905062000306565b600090505b92915050565b600080836001016000848152602001908152602001600020541415905092915050565b828054600181600116156101000203166002900490600052602060002090601f016020900481019282620003675760008555620003b3565b82601f106200038257805160ff1916838001178555620003b3565b82800160010185558215620003b3579182015b82811115620003b257825182559160200191906001019062000395565b5b509050620003c29190620003c6565b5090565b5b80821115620003e1576000816000905550600101620003c7565b5090565b6126c480620003f56000396000f3fe608060405234801561001057600080fd5b50600436106101a95760003560e01c806370a08231116100f9578063a457c2d711610097578063d539139311610071578063d5391393146104e2578063d547741f14610500578063dd62ed3e1461051c578063e63ab1e91461054c576101a9565b8063a457c2d714610452578063a9059cbb14610482578063ca15c873146104b2576101a9565b80639010d07c116100d35780639010d07c146103b657806391d14854146103e657806395d89b4114610416578063a217fddf14610434576101a9565b806370a082311461036057806379cc6790146103905780638456cb59146103ac576101a9565b8063313ce567116101665780633f4ba83a116101405780633f4ba83a1461030057806340c10f191461030a57806342966c68146103265780635c975abb14610342576101a9565b8063313ce5671461029657806336568abe146102b457806339509351146102d0576101a9565b806306fdde03146101ae578063095ea7b3146101cc57806318160ddd146101fc57806323b872dd1461021a578063248a9ca31461024a5780632f2ff15d1461027a575b600080fd5b6101b661056a565b6040516101c3919061224a565b60405180910390f35b6101e660048036038101906101e1919061206f565b61060c565b6040516101f39190612214565b60405180910390f35b61020461062a565b604051610211919061226c565b60405180910390f35b610234600480360381019061022f9190612020565b610634565b6040516102419190612214565b60405180910390f35b610264600480360381019061025f91906120ab565b61070d565b604051610271919061222f565b60405180910390f35b610294600480360381019061028f91906120d4565b61072c565b005b61029e6107b5565b6040516102ab9190612287565b60405180910390f35b6102ce60048036038101906102c991906120d4565b6107cc565b005b6102ea60048036038101906102e5919061206f565b610865565b6040516102f79190612214565b60405180910390f35b610308610918565b005b610324600480360381019061031f919061206f565b6109a8565b005b610340600480360381019061033b919061214c565b610a3c565b005b61034a610a50565b6040516103579190612214565b60405180910390f35b61037a60048036038101906103759190611fbb565b610a67565b604051610387919061226c565b60405180910390f35b6103aa60048036038101906103a5919061206f565b610ab0565b005b6103b4610b12565b005b6103d060048036038101906103cb9190612110565b610ba2565b6040516103dd91906121f9565b60405180910390f35b61040060048036038101906103fb91906120d4565b610bd3565b60405161040d9190612214565b60405180910390f35b61041e610c04565b60405161042b919061224a565b60405180910390f35b61043c610ca6565b604051610449919061222f565b60405180910390f35b61046c6004803603810190610467919061206f565b610cad565b6040516104799190612214565b60405180910390f35b61049c6004803603810190610497919061206f565b610d7a565b6040516104a99190612214565b60405180910390f35b6104cc60048036038101906104c791906120ab565b610d98565b6040516104d9919061226c565b60405180910390f35b6104ea610dbe565b6040516104f7919061222f565b60405180910390f35b61051a600480360381019061051591906120d4565b610de2565b005b61053660048036038101906105319190611fe4565b610e6b565b604051610543919061226c565b60405180910390f35b610554610ef2565b604051610561919061222f565b60405180910390f35b606060048054600181600116156101000203166002900480601f0160208091040260200160405190810160405280929190818152602001828054600181600116156101000203166002900480156106025780601f106105d757610100808354040283529160200191610602565b820191906000526020600020905b8154815290600101906020018083116105e557829003601f168201915b5050505050905090565b6000610620610619610f46565b8484610f4e565b6001905092915050565b6000600354905090565b6000610641848484611145565b6107028461064d610f46565b6106fd856040518060600160405280602881526020016124ee60289139600260008b73ffffffffffffffffffffffffffffffffffffffff1673ffffffffffffffffffffffffffffffffffffffff16815260200190815260200160002060006106b3610f46565b73ffffffffffffffffffffffffffffffffffffffff1673ffffffffffffffffffffffffffffffffffffffff1681526020019081526020016000205461140a9092919063ffffffff16565b610f4e565b600190509392505050565b6000806000838152602001908152602001600020600201549050919050565b6107526000808481526020019081526020016000206002015461074d610f46565b610bd3565b6107a7576040517f08c379a000000000000000000000000000000000000000000000000000000000815260040180806020018281038252602f8152602001806123ec602f913960400191505060405180910390fd5b6107b182826114c4565b5050565b6000600660009054906101000a900460ff16905090565b6107d4610f46565b73ffffffffffffffffffffffffffffffffffffffff168173ffffffffffffffffffffffffffffffffffffffff1614610857576040517f08c379a000000000000000000000000000000000000000000000000000000000815260040180806020018281038252602f815260200180612636602f913960400191505060405180910390fd5b6108618282611557565b5050565b600061090e610872610f46565b846109098560026000610883610f46565b73ffffffffffffffffffffffffffffffffffffffff1673ffffffffffffffffffffffffffffffffffffffff16815260200190815260200160002060008973ffffffffffffffffffffffffffffffffffffffff1673ffffffffffffffffffffffffffffffffffffffff168152602001908152602001600020546115ea90919063ffffffff16565b610f4e565b6001905092915050565b6109497f65d7a28e3265b37a6474929f336521b332c1681b933f6cb9f3376673440d862a610944610f46565b610bd3565b61099e576040517f08c379a000000000000000000000000000000000000000000000000000000000815260040180806020018281038252603981526020018061243d6039913960400191505060405180910390fd5b6109a6611672565b565b6109d97f9f2df0fed2c77648de5860a4cc508cd0818c85b8b8a1ab4ceeef8d981c8956a66109d4610f46565b610bd3565b610a2e576040517f08c379a00000000000000000000000000000000000000000000000000000000081526004018080602001828103825260368152602001806125166036913960400191505060405180910390fd5b610a38828261175d565b5050565b610a4d610a47610f46565b82611926565b50565b6000600660019054906101000a900460ff16905090565b6000600160008373ffffffffffffffffffffffffffffffffffffffff1673ffffffffffffffffffffffffffffffffffffffff168152602001908152602001600020549050919050565b6000610aef8260405180606001604052806024815260200161254c60249139610ae086610adb610f46565b610e6b565b61140a9092919063ffffffff16565b9050610b0383610afd610f46565b83610f4e565b610b0d8383611926565b505050565b610b437f65d7a28e3265b37a6474929f336521b332c1681b933f6cb9f3376673440d862a610b3e610f46565b610bd3565b610b98576040517f08c379a00000000000000000000000000000000000000000000000000000000081526004018080602001828103825260378152602001806125da6037913960400191505060405180910390fd5b610ba0611aec565b565b6000610bcb82600080868152602001908152602001600020600001611bd890919063ffffffff16565b905092915050565b6000610bfc82600080868152602001908152602001600020600001611bf290919063ffffffff16565b905092915050565b606060058054600181600116156101000203166002900480601f016020809104026020016040519081016040528092919081815260200182805460018160011615610100020316600290048015610c9c5780601f10610c7157610100808354040283529160200191610c9c565b820191906000526020600020905b815481529060010190602001808311610c7f57829003601f168201915b5050505050905090565b6000801b81565b6000610d70610cba610f46565b84610d6b856040518060600160405280602581526020016126116025913960026000610ce4610f46565b73ffffffffffffffffffffffffffffffffffffffff1673ffffffffffffffffffffffffffffffffffffffff16815260200190815260200160002060008a73ffffffffffffffffffffffffffffffffffffffff1673ffffffffffffffffffffffffffffffffffffffff1681526020019081526020016000205461140a9092919063ffffffff16565b610f4e565b6001905092915050565b6000610d8e610d87610f46565b8484611145565b6001905092915050565b6000610db7600080848152602001908152602001600020600001611c22565b9050919050565b7f9f2df0fed2c77648de5860a4cc508cd0818c85b8b8a1ab4ceeef8d981c8956a681565b610e0860008084815260200190815260200160002060020154610e03610f46565b610bd3565b610e5d576040517f08c379a00000000000000000000000000000000000000000000000000000000081526004018080602001828103825260308152602001806124be6030913960400191505060405180910390fd5b610e678282611557565b5050565b6000600260008473ffffffffffffffffffffffffffffffffffffffff1673ffffffffffffffffffffffffffffffffffffffff16815260200190815260200160002060008373ffffffffffffffffffffffffffffffffffffffff1673ffffffffffffffffffffffffffffffffffffffff16815260200190815260200160002054905092915050565b7f65d7a28e3265b37a6474929f336521b332c1681b933f6cb9f3376673440d862a81565b6000610f3e836000018373ffffffffffffffffffffffffffffffffffffffff1660001b611c37565b905092915050565b600033905090565b600073ffffffffffffffffffffffffffffffffffffffff168373ffffffffffffffffffffffffffffffffffffffff161415610fd4576040517f08c379a00000000000000000000000000000000000000000000000000000000081526004018080602001828103825260248152602001806125b66024913960400191505060405180910390fd5b600073ffffffffffffffffffffffffffffffffffffffff168273ffffffffffffffffffffffffffffffffffffffff16141561105a576040517f08c379a00000000000000000000000000000000000000000000000000000000081526004018080602001828103825260228152602001806124766022913960400191505060405180910390fd5b80600260008573ffffffffffffffffffffffffffffffffffffffff1673ffffffffffffffffffffffffffffffffffffffff16815260200190815260200160002060008473ffffffffffffffffffffffffffffffffffffffff1673ffffffffffffffffffffffffffffffffffffffff168152602001908152602001600020819055508173ffffffffffffffffffffffffffffffffffffffff168373ffffffffffffffffffffffffffffffffffffffff167f8c5be1e5ebec7d5bd14f71427d1e84f3dd0314c0f7b2291e5b200ac8c7c3b925836040518082815260200191505060405180910390a3505050565b600073ffffffffffffffffffffffffffffffffffffffff168373ffffffffffffffffffffffffffffffffffffffff1614156111cb576040517f08c379a00000000000000000000000000000000000000000000000000000000081526004018080602001828103825260258152602001806125916025913960400191505060405180910390fd5b600073ffffffffffffffffffffffffffffffffffffffff168273ffffffffffffffffffffffffffffffffffffffff161415611251576040517f08c379a00000000000000000000000000000000000000000000000000000000081526004018080602001828103825260238152602001806123c96023913960400191505060405180910390fd5b61125c838383611ca7565b6112c88160405180606001604052806026815260200161249860269139600160008773ffffffffffffffffffffffffffffffffffffffff1673ffffffffffffffffffffffffffffffffffffffff1681526020019081526020016000205461140a9092919063ffffffff16565b600160008573ffffffffffffffffffffffffffffffffffffffff1673ffffffffffffffffffffffffffffffffffffffff1681526020019081526020016000208190555061135d81600160008573ffffffffffffffffffffffffffffffffffffffff1673ffffffffffffffffffffffffffffffffffffffff168152602001908152602001600020546115ea90919063ffffffff16565b600160008473ffffffffffffffffffffffffffffffffffffffff1673ffffffffffffffffffffffffffffffffffffffff168152602001908152602001600020819055508173ffffffffffffffffffffffffffffffffffffffff168373ffffffffffffffffffffffffffffffffffffffff167fddf252ad1be2c89b69c2b068fc378daa952ba7f163c4a11628f55a4df523b3ef836040518082815260200191505060405180910390a3505050565b60008383111582906114b7576040517f08c379a00000000000000000000000000000000000000000000000000000000081526004018080602001828103825283818151815260200191508051906020019080838360005b8381101561147c578082015181840152602081019050611461565b50505050905090810190601f1680156114a95780820380516001836020036101000a031916815260200191505b509250505060405180910390fd5b5082840390509392505050565b6114eb81600080858152602001908152602001600020600001610f1690919063ffffffff16565b15611553576114f8610f46565b73ffffffffffffffffffffffffffffffffffffffff168173ffffffffffffffffffffffffffffffffffffffff16837f2f8788117e7eff1d82e926ec794901d17c78024a50270940304540a733656f0d60405160405180910390a45b5050565b61157e81600080858152602001908152602001600020600001611cb790919063ffffffff16565b156115e65761158b610f46565b73ffffffffffffffffffffffffffffffffffffffff168173ffffffffffffffffffffffffffffffffffffffff16837ff6391f5c32d9c69d2a47ea670b442974b53935d1edc7fd64eb21e047a839171b60405160405180910390a45b5050565b600080828401905083811015611668576040517f08c379a000000000000000000000000000000000000000000000000000000000815260040180806020018281038252601b8152602001807f536166654d6174683a206164646974696f6e206f766572666c6f77000000000081525060200191505060405180910390fd5b8091505092915050565b61167a610a50565b6116ec576040517f08c379a00000000000000000000000000000000000000000000000000000000081526004018080602001828103825260148152602001807f5061757361626c653a206e6f742070617573656400000000000000000000000081525060200191505060405180910390fd5b6000600660016101000a81548160ff0219169083151502179055507f5db9ee0a495bf2e6ff9c91a7834c1ba4fdd244a5e8aa4e537bd38aeae4b073aa611730610f46565b604051808273ffffffffffffffffffffffffffffffffffffffff16815260200191505060405180910390a1565b600073ffffffffffffffffffffffffffffffffffffffff168273ffffffffffffffffffffffffffffffffffffffff161415611800576040517f08c379a000000000000000000000000000000000000000000000000000000000815260040180806020018281038252601f8152602001807f45524332303a206d696e7420746f20746865207a65726f20616464726573730081525060200191505060405180910390fd5b61180c60008383611ca7565b611821816003546115ea90919063ffffffff16565b60038190555061187981600160008573ffffffffffffffffffffffffffffffffffffffff1673ffffffffffffffffffffffffffffffffffffffff168152602001908152602001600020546115ea90919063ffffffff16565b600160008473ffffffffffffffffffffffffffffffffffffffff1673ffffffffffffffffffffffffffffffffffffffff168152602001908152602001600020819055508173ffffffffffffffffffffffffffffffffffffffff16600073ffffffffffffffffffffffffffffffffffffffff167fddf252ad1be2c89b69c2b068fc378daa952ba7f163c4a11628f55a4df523b3ef836040518082815260200191505060405180910390a35050565b600073ffffffffffffffffffffffffffffffffffffffff168273ffffffffffffffffffffffffffffffffffffffff1614156119ac576040517f08c379a00000000000000000000000000000000000000000000000000000000081526004018080602001828103825260218152602001806125706021913960400191505060405180910390fd5b6119b882600083611ca7565b611a248160405180606001604052806022815260200161241b60229139600160008673ffffffffffffffffffffffffffffffffffffffff1673ffffffffffffffffffffffffffffffffffffffff1681526020019081526020016000205461140a9092919063ffffffff16565b600160008473ffffffffffffffffffffffffffffffffffffffff1673ffffffffffffffffffffffffffffffffffffffff16815260200190815260200160002081905550611a7c81600354611ce790919063ffffffff16565b600381905550600073ffffffffffffffffffffffffffffffffffffffff168273ffffffffffffffffffffffffffffffffffffffff167fddf252ad1be2c89b69c2b068fc378daa952ba7f163c4a11628f55a4df523b3ef836040518082815260200191505060405180910390a35050565b611af4610a50565b15611b67576040517f08c379a00000000000000000000000000000000000000000000000000000000081526004018080602001828103825260108152602001807f5061757361626c653a207061757365640000000000000000000000000000000081525060200191505060405180910390fd5b6001600660016101000a81548160ff0219169083151502179055507f62e78cea01bee320cd4e420270b5ea74000d11b0c9f74754ebdbfc544b05a258611bab610f46565b604051808273ffffffffffffffffffffffffffffffffffffffff16815260200191505060405180910390a1565b6000611be78360000183611d6a565b60001c905092915050565b6000611c1a836000018373ffffffffffffffffffffffffffffffffffffffff1660001b611ded565b905092915050565b6000611c3082600001611e10565b9050919050565b6000611c438383611ded565b611c9c578260000182908060018154018082558091505060019003906000526020600020016000909190919091505582600001805490508360010160008481526020019081526020016000208190555060019050611ca1565b600090505b92915050565b611cb2838383611e21565b505050565b6000611cdf836000018373ffffffffffffffffffffffffffffffffffffffff1660001b611e8f565b905092915050565b600082821115611d5f576040517f08c379a000000000000000000000000000000000000000000000000000000000815260040180806020018281038252601e8152602001807f536166654d6174683a207375627472616374696f6e206f766572666c6f77000081525060200191505060405180910390fd5b818303905092915050565b600081836000018054905011611dcb576040517f08c379a00000000000000000000000000000000000000000000000000000000081526004018080602001828103825260228152602001806123a76022913960400191505060405180910390fd5b826000018281548110611dda57fe5b9060005260206000200154905092915050565b600080836001016000848152602001908152602001600020541415905092915050565b600081600001805490509050919050565b611e2c838383611f77565b611e34610a50565b15611e8a576040517f08c379a000000000000000000000000000000000000000000000000000000000815260040180806020018281038252602a815260200180612665602a913960400191505060405180910390fd5b505050565b60008083600101600084815260200190815260200160002054905060008114611f6b5760006001820390506000600186600001805490500390506000866000018281548110611eda57fe5b9060005260206000200154905080876000018481548110611ef757fe5b9060005260206000200181905550600183018760010160008381526020019081526020016000208190555086600001805480611f2f57fe5b60019003818190600052602060002001600090559055866001016000878152602001908152602001600020600090556001945050505050611f71565b60009150505b92915050565b505050565b600081359050611f8b81612361565b92915050565b600081359050611fa081612378565b92915050565b600081359050611fb58161238f565b92915050565b600060208284031215611fcd57600080fd5b6000611fdb84828501611f7c565b91505092915050565b60008060408385031215611ff757600080fd5b600061200585828601611f7c565b925050602061201685828601611f7c565b9150509250929050565b60008060006060848603121561203557600080fd5b600061204386828701611f7c565b935050602061205486828701611f7c565b925050604061206586828701611fa6565b9150509250925092565b6000806040838503121561208257600080fd5b600061209085828601611f7c565b92505060206120a185828601611fa6565b9150509250929050565b6000602082840312156120bd57600080fd5b60006120cb84828501611f91565b91505092915050565b600080604083850312156120e757600080fd5b60006120f585828601611f91565b925050602061210685828601611f7c565b9150509250929050565b6000806040838503121561212357600080fd5b600061213185828601611f91565b925050602061214285828601611fa6565b9150509250929050565b60006020828403121561215e57600080fd5b600061216c84828501611fa6565b91505092915050565b61217e816122be565b82525050565b61218d816122d0565b82525050565b61219c816122dc565b82525050565b60006121ad826122a2565b6121b781856122ad565b93506121c781856020860161231d565b6121d081612350565b840191505092915050565b6121e481612306565b82525050565b6121f381612310565b82525050565b600060208201905061220e6000830184612175565b92915050565b60006020820190506122296000830184612184565b92915050565b60006020820190506122446000830184612193565b92915050565b6000602082019050818103600083015261226481846121a2565b905092915050565b600060208201905061228160008301846121db565b92915050565b600060208201905061229c60008301846121ea565b92915050565b600081519050919050565b600082825260208201905092915050565b60006122c9826122e6565b9050919050565b60008115159050919050565b6000819050919050565b600073ffffffffffffffffffffffffffffffffffffffff82169050919050565b6000819050919050565b600060ff82169050919050565b60005b8381101561233b578082015181840152602081019050612320565b8381111561234a576000848401525b50505050565b6000601f19601f8301169050919050565b61236a816122be565b811461237557600080fd5b50565b612381816122dc565b811461238c57600080fd5b50565b61239881612306565b81146123a357600080fd5b5056fe456e756d657261626c655365743a20696e646578206f7574206f6620626f756e647345524332303a207472616e7366657220746f20746865207a65726f2061646472657373416363657373436f6e74726f6c3a2073656e646572206d75737420626520616e2061646d696e20746f206772616e7445524332303a206275726e20616d6f756e7420657863656564732062616c616e636545524332305072657365744d696e7465725061757365723a206d75737420686176652070617573657220726f6c6520746f20756e706175736545524332303a20617070726f766520746f20746865207a65726f206164647265737345524332303a207472616e7366657220616d6f756e7420657863656564732062616c616e6365416363657373436f6e74726f6c3a2073656e646572206d75737420626520616e2061646d696e20746f207265766f6b6545524332303a207472616e7366657220616d6f756e74206578636565647320616c6c6f77616e636545524332305072657365744d696e7465725061757365723a206d7573742068617665206d696e74657220726f6c6520746f206d696e7445524332303a206275726e20616d6f756e74206578636565647320616c6c6f77616e636545524332303a206275726e2066726f6d20746865207a65726f206164647265737345524332303a207472616e736665722066726f6d20746865207a65726f206164647265737345524332303a20617070726f76652066726f6d20746865207a65726f206164647265737345524332305072657365744d696e7465725061757365723a206d75737420686176652070617573657220726f6c6520746f20706175736545524332303a2064656372656173656420616c6c6f77616e63652062656c6f77207a65726f416363657373436f6e74726f6c3a2063616e206f6e6c792072656e6f756e636520726f6c657320666f722073656c6645524332305061757361626c653a20746f6b656e207472616e73666572207768696c6520706175736564a264697066735822122094fbcd11953c4889474ae630145772694c59319cac08bd80037e237daaf6990164736f6c63430007050033",
  "source": "// SPDX-License-Identifier: UNLICENSED\npragma solidity >=0.7.0;\npragma abicoder v2;\n\nimport \"./LIB.sol\";\n\ncontract LIBWrapper {\n\n\tLIB public LIBToken;\n\n\tevent LogLIBrapped(address sender, uint256 amount);\n\tevent LogLIBnwrapped(address sender, uint256 amount);\n\tevent LogETHWrapped(address receiver, uint256 amount);\n\n\n\tconstructor() public {\n\t\tLIBToken = new LIB();\n\t}\n\n\tfunction wrap() public payable {\n\t\trequire(msg.value > 0, \"We need to wrap at least 1 wei\");\n\n\t\tLIBToken.mint(msg.sender, msg.value);\n\t\temit LogLIBrapped(msg.sender, msg.value);\n\t}\n\n\tfunction unwrap(uint value) public {\n\t\trequire(value > 0, \"We need to unwrap at least 1 wei\");\n\n\t\tLIBToken.transferFrom(msg.sender, address(this), value); // returns the LIB from the userAddress to the TokenContract address\n\t\tLIBToken.burn(value); // removes them from the tokenContract\n\t\tmsg.sender.transfer(value);\n\t\temit LogLIBnwrapped(msg.sender, value);\n\t}\n\n\tfunction wrapWithSignature(bytes32 hashedMessage, uint8 v, bytes32 r, bytes32 s, address receiver) public payable {\n\t\trequire(msg.value > 0, \"We need to wrap at least 1 wei\");\n\t\trequire(recoverSigner(hashedMessage, v,r,s) == receiver, 'Receiver does not signed the message');\n\t\tLIBToken.mint(receiver, msg.value);\n\t\temit LogETHWrapped(receiver, msg.value);\n\t}\n\n\tfunction recoverSigner(bytes32 hashedMessage, uint8 v, bytes32 r, bytes32 s) internal returns (address) {\n\t\tbytes32 messageDigest = keccak256(abi.encodePacked(\"\\x19Ethereum Signed Message:\\n32\", hashedMessage));\n    \treturn ecrecover(messageDigest, v, r, s);\n\t}\n}",
  "sourcePath": "/Users/steriostaskudis/Desktop/Training path/books-solidity/contracts/LIBWrapper.sol",
  "compiler": {
    "name": "solc",
    "version": "0.7.5+commit.eb77ed08.Emscripten.clang",
    "optimizer": false,
    "runs": 200
  },
  "schemaVersion": "2.3.5",
  "updatedAt": "2021-06-07T11:18:32.644Z"
}