{
  "contractName": "USElection",
  "abi": [
    {
      "anonymous": false,
      "inputs": [
        {
          "indexed": false,
          "internalType": "uint256",
          "name": "winner",
          "type": "uint256"
        }
      ],
      "name": "LogElectionEnded",
      "type": "event"
    },
    {
      "anonymous": false,
      "inputs": [
        {
          "indexed": false,
          "internalType": "uint8",
          "name": "winner",
          "type": "uint8"
        },
        {
          "indexed": false,
          "internalType": "uint8",
          "name": "stateSeats",
          "type": "uint8"
        },
        {
          "indexed": false,
          "internalType": "string",
          "name": "state",
          "type": "string"
        }
      ],
      "name": "LogStateResult",
      "type": "event"
    },
    {
      "anonymous": false,
      "inputs": [
        {
          "indexed": true,
          "internalType": "address",
          "name": "previousOwner",
          "type": "address"
        },
        {
          "indexed": true,
          "internalType": "address",
          "name": "newOwner",
          "type": "address"
        }
      ],
      "name": "OwnershipTransferred",
      "type": "event"
    },
    {
      "inputs": [],
      "name": "BIDEN",
      "outputs": [
        {
          "internalType": "uint8",
          "name": "",
          "type": "uint8"
        }
      ],
      "stateMutability": "view",
      "type": "function"
    },
    {
      "inputs": [],
      "name": "TRUMP",
      "outputs": [
        {
          "internalType": "uint8",
          "name": "",
          "type": "uint8"
        }
      ],
      "stateMutability": "view",
      "type": "function"
    },
    {
      "inputs": [],
      "name": "electionEnded",
      "outputs": [
        {
          "internalType": "bool",
          "name": "",
          "type": "bool"
        }
      ],
      "stateMutability": "view",
      "type": "function"
    },
    {
      "inputs": [],
      "name": "owner",
      "outputs": [
        {
          "internalType": "address",
          "name": "",
          "type": "address"
        }
      ],
      "stateMutability": "view",
      "type": "function"
    },
    {
      "inputs": [],
      "name": "renounceOwnership",
      "outputs": [],
      "stateMutability": "nonpayable",
      "type": "function"
    },
    {
      "inputs": [
        {
          "internalType": "string",
          "name": "",
          "type": "string"
        }
      ],
      "name": "resultsSubmitted",
      "outputs": [
        {
          "internalType": "bool",
          "name": "",
          "type": "bool"
        }
      ],
      "stateMutability": "view",
      "type": "function"
    },
    {
      "inputs": [
        {
          "internalType": "uint8",
          "name": "",
          "type": "uint8"
        }
      ],
      "name": "seats",
      "outputs": [
        {
          "internalType": "uint8",
          "name": "",
          "type": "uint8"
        }
      ],
      "stateMutability": "view",
      "type": "function"
    },
    {
      "inputs": [
        {
          "internalType": "address",
          "name": "newOwner",
          "type": "address"
        }
      ],
      "name": "transferOwnership",
      "outputs": [],
      "stateMutability": "nonpayable",
      "type": "function"
    },
    {
      "inputs": [
        {
          "components": [
            {
              "internalType": "string",
              "name": "name",
              "type": "string"
            },
            {
              "internalType": "uint256",
              "name": "votesBiden",
              "type": "uint256"
            },
            {
              "internalType": "uint256",
              "name": "votesTrump",
              "type": "uint256"
            },
            {
              "internalType": "uint8",
              "name": "stateSeats",
              "type": "uint8"
            }
          ],
          "internalType": "struct USElection.StateResult",
          "name": "result",
          "type": "tuple"
        }
      ],
      "name": "submitStateResult",
      "outputs": [],
      "stateMutability": "nonpayable",
      "type": "function"
    },
    {
      "inputs": [],
      "name": "currentLeader",
      "outputs": [
        {
          "internalType": "uint8",
          "name": "",
          "type": "uint8"
        }
      ],
      "stateMutability": "view",
      "type": "function"
    },
    {
      "inputs": [],
      "name": "endElection",
      "outputs": [],
      "stateMutability": "nonpayable",
      "type": "function"
    }
  ],
  "bytecode": "0x608060405234801561001057600080fd5b5060006100216100c460201b60201c565b9050806000806101000a81548173ffffffffffffffffffffffffffffffffffffffff021916908373ffffffffffffffffffffffffffffffffffffffff1602179055508073ffffffffffffffffffffffffffffffffffffffff16600073ffffffffffffffffffffffffffffffffffffffff167f8be0079c531659141344cd1fd0a4f28419497f9722a3daafe3b4186f6b6457e060405160405180910390a3506100cc565b600033905090565b611174806100db6000396000f3fe608060405234801561001057600080fd5b50600436106100a95760003560e01c8063715018a611610071578063715018a6146101545780638da5cb5b1461015e578063ac4bd53a1461017c578063c94ca9e31461019a578063e494a883146101b8578063f2fde38b146101d4576100a9565b80632d78d8e5146100ae57806337ad98ec146100cc57806359f78468146100fc57806369b36bd414610106578063713d87c514610124575b600080fd5b6100b66101f0565b6040516100c39190610f6c565b60405180910390f35b6100e660048036038101906100e19190610b3d565b6101f5565b6040516100f39190610e76565b60405180910390f35b61010461022b565b005b61010e610352565b60405161011b9190610f6c565b60405180910390f35b61013e60048036038101906101399190610bbf565b610357565b60405161014b9190610f6c565b60405180910390f35b61015c610377565b005b6101666104b1565b6040516101739190610e5b565b60405180910390f35b6101846104da565b6040516101919190610f6c565b60405180910390f35b6101a26105ae565b6040516101af9190610e76565b60405180910390f35b6101d260048036038101906101cd9190610b7e565b6105c1565b005b6101ee60048036038101906101e99190610b14565b6108ca565b005b600281565b6002818051602081018201805184825260208301602085012081835280955050505050506000915054906101000a900460ff1681565b610233610a73565b73ffffffffffffffffffffffffffffffffffffffff166102516104b1565b73ffffffffffffffffffffffffffffffffffffffff16146102a7576040517f08c379a000000000000000000000000000000000000000000000000000000000815260040161029e90610f31565b60405180910390fd5b600060149054906101000a900460ff16156102f7576040517f08c379a00000000000000000000000000000000000000000000000000000000081526004016102ee90610eb1565b60405180910390fd5b6001600060146101000a81548160ff0219169083151502179055507faacb23683ec1a0e9b52f9a6264edf58ad322ac62079d65ea7363a2d400f439f461033b6104da565b6040516103489190610f51565b60405180910390a1565b600181565b60016020528060005260406000206000915054906101000a900460ff1681565b61037f610a73565b73ffffffffffffffffffffffffffffffffffffffff1661039d6104b1565b73ffffffffffffffffffffffffffffffffffffffff16146103f3576040517f08c379a00000000000000000000000000000000000000000000000000000000081526004016103ea90610f31565b60405180910390fd5b600073ffffffffffffffffffffffffffffffffffffffff1660008054906101000a900473ffffffffffffffffffffffffffffffffffffffff1673ffffffffffffffffffffffffffffffffffffffff167f8be0079c531659141344cd1fd0a4f28419497f9722a3daafe3b4186f6b6457e060405160405180910390a360008060006101000a81548173ffffffffffffffffffffffffffffffffffffffff021916908373ffffffffffffffffffffffffffffffffffffffff160217905550565b60008060009054906101000a900473ffffffffffffffffffffffffffffffffffffffff16905090565b600060016000600260ff1660ff16815260200190815260200160002060009054906101000a900460ff1660ff1660016000600160ff1660ff16815260200190815260200160002060009054906101000a900460ff1660ff16111561054157600190506105ab565b60016000600160ff1660ff16815260200190815260200160002060009054906101000a900460ff1660ff1660016000600260ff1660ff16815260200190815260200160002060009054906101000a900460ff1660ff1611156105a657600290506105ab565b600090505b90565b600060149054906101000a900460ff1681565b6105c9610a73565b73ffffffffffffffffffffffffffffffffffffffff166105e76104b1565b73ffffffffffffffffffffffffffffffffffffffff161461063d576040517f08c379a000000000000000000000000000000000000000000000000000000000815260040161063490610f31565b60405180910390fd5b600060149054906101000a900460ff161561068d576040517f08c379a000000000000000000000000000000000000000000000000000000000815260040161068490610eb1565b60405180910390fd5b60008160600160208101906106a29190610bbf565b60ff16116106e5576040517f08c379a00000000000000000000000000000000000000000000000000000000081526004016106dc90610f11565b60405180910390fd5b806040013581602001351415610730576040517f08c379a000000000000000000000000000000000000000000000000000000000815260040161072790610ef1565b60405180910390fd5b60028180600001906107429190610fc7565b604051610750929190610e42565b908152602001604051809103902060009054906101000a900460ff16156107ac576040517f08c379a00000000000000000000000000000000000000000000000000000000081526004016107a390610e91565b60405180910390fd5b60008160400135826020013511156107c757600190506107cc565b600290505b8160600160208101906107df9190610bbf565b600160008360ff1660ff16815260200190815260200160002060008282829054906101000a900460ff160192506101000a81548160ff021916908360ff160217905550600160028380600001906108369190610fc7565b604051610844929190610e42565b908152602001604051809103902060006101000a81548160ff0219169083151502179055507fa2e71fe38f1afa3762cf9d2ea7bb6a4d272a90fd6f9392f3acedd3b542046b468183606001602081019061089e9190610bbf565b8480600001906108ae9190610fc7565b6040516108be9493929190610f87565b60405180910390a15050565b6108d2610a73565b73ffffffffffffffffffffffffffffffffffffffff166108f06104b1565b73ffffffffffffffffffffffffffffffffffffffff1614610946576040517f08c379a000000000000000000000000000000000000000000000000000000000815260040161093d90610f31565b60405180910390fd5b600073ffffffffffffffffffffffffffffffffffffffff168173ffffffffffffffffffffffffffffffffffffffff1614156109b6576040517f08c379a00000000000000000000000000000000000000000000000000000000081526004016109ad90610ed1565b60405180910390fd5b8073ffffffffffffffffffffffffffffffffffffffff1660008054906101000a900473ffffffffffffffffffffffffffffffffffffffff1673ffffffffffffffffffffffffffffffffffffffff167f8be0079c531659141344cd1fd0a4f28419497f9722a3daafe3b4186f6b6457e060405160405180910390a3806000806101000a81548173ffffffffffffffffffffffffffffffffffffffff021916908373ffffffffffffffffffffffffffffffffffffffff16021790555050565b600033905090565b600081359050610a8a81611110565b92915050565b600082601f830112610aa157600080fd5b8135610ab4610aaf8261104b565b61101e565b91508082526020830160208301858383011115610ad057600080fd5b610adb8382846110f0565b50505092915050565b600060808284031215610af657600080fd5b81905092915050565b600081359050610b0e81611127565b92915050565b600060208284031215610b2657600080fd5b6000610b3484828501610a7b565b91505092915050565b600060208284031215610b4f57600080fd5b600082013567ffffffffffffffff811115610b6957600080fd5b610b7584828501610a90565b91505092915050565b600060208284031215610b9057600080fd5b600082013567ffffffffffffffff811115610baa57600080fd5b610bb684828501610ae4565b91505092915050565b600060208284031215610bd157600080fd5b6000610bdf84828501610aff565b91505092915050565b610bf181611093565b82525050565b610c00816110a5565b82525050565b6000610c128385611077565b9350610c1f8385846110f0565b610c28836110ff565b840190509392505050565b6000610c3f8385611088565b9350610c4c8385846110f0565b82840190509392505050565b6000610c65602883611077565b91507f5468697320737461746520726573756c742077617320616c726561647920737560008301527f626d6974746564210000000000000000000000000000000000000000000000006020830152604082019050919050565b6000610ccb601e83611077565b91507f54686520656c656374696f6e2068617320656e64656420616c726561647900006000830152602082019050919050565b6000610d0b602683611077565b91507f4f776e61626c653a206e6577206f776e657220697320746865207a65726f206160008301527f64647265737300000000000000000000000000000000000000000000000000006020830152604082019050919050565b6000610d71601583611077565b91507f54686572652063616e6e6f7420626520612074696500000000000000000000006000830152602082019050919050565b6000610db1602083611077565b91507f537461746573206d7573742068617665206174206c65617374203120736561746000830152602082019050919050565b6000610df1602083611077565b91507f4f776e61626c653a2063616c6c6572206973206e6f7420746865206f776e65726000830152602082019050919050565b610e2d816110de565b82525050565b610e3c816110d1565b82525050565b6000610e4f828486610c33565b91508190509392505050565b6000602082019050610e706000830184610be8565b92915050565b6000602082019050610e8b6000830184610bf7565b92915050565b60006020820190508181036000830152610eaa81610c58565b9050919050565b60006020820190508181036000830152610eca81610cbe565b9050919050565b60006020820190508181036000830152610eea81610cfe565b9050919050565b60006020820190508181036000830152610f0a81610d64565b9050919050565b60006020820190508181036000830152610f2a81610da4565b9050919050565b60006020820190508181036000830152610f4a81610de4565b9050919050565b6000602082019050610f666000830184610e24565b92915050565b6000602082019050610f816000830184610e33565b92915050565b6000606082019050610f9c6000830187610e33565b610fa96020830186610e33565b8181036040830152610fbc818486610c06565b905095945050505050565b60008083356001602003843603038112610fe057600080fd5b80840192508235915067ffffffffffffffff821115610ffe57600080fd5b60208301925060018202360383131561101657600080fd5b509250929050565b6000604051905081810181811067ffffffffffffffff8211171561104157600080fd5b8060405250919050565b600067ffffffffffffffff82111561106257600080fd5b601f19601f8301169050602081019050919050565b600082825260208201905092915050565b600081905092915050565b600061109e826110b1565b9050919050565b60008115159050919050565b600073ffffffffffffffffffffffffffffffffffffffff82169050919050565b600060ff82169050919050565b60006110e9826110d1565b9050919050565b82818337600083830152505050565b6000601f19601f8301169050919050565b61111981611093565b811461112457600080fd5b50565b611130816110d1565b811461113b57600080fd5b5056fea264697066735822122069d0f7b506bd37ed859ff95745f4fc1515fce686e0b5e3d5d307d0e1f0b7c11764736f6c63430007000033",
  "source": "// SPDX-License-Identifier: UNLICENSED\npragma experimental ABIEncoderV2;\npragma solidity >=0.7.0;\n\nimport \"@openzeppelin/contracts/access/Ownable.sol\";\n\ncontract USElection is Ownable {\n  uint8 public constant BIDEN = 1;\n  uint8 public constant TRUMP = 2;\n\n  bool public electionEnded;\n\n  mapping(uint8 => uint8) public seats;\n  mapping(string => bool) public resultsSubmitted;\n\n  event LogStateResult(uint8 winner, uint8 stateSeats, string state);\n  event LogElectionEnded(uint winner);\n\n  struct StateResult {\n      string name;\n      uint votesBiden;\n      uint votesTrump;\n      uint8 stateSeats;\n  }\n\n  modifier onlyActiveElection() {\n      require(!electionEnded, \"The election has ended already\");\n      _;\n  }\n\n  function submitStateResult(StateResult calldata result) public onlyOwner onlyActiveElection {\n      require(result.stateSeats > 0, \"States must have at least 1 seat\");\n      require(result.votesBiden != result.votesTrump, \"There cannot be a tie\");\n      require(!resultsSubmitted[result.name], \"This state result was already submitted!\");\n\n      uint8 winner;\n      if(result.votesBiden > result.votesTrump) {\n          winner = BIDEN;\n      } else {\n          winner = TRUMP;\n      }\n\n      seats[winner] += result.stateSeats;\n      resultsSubmitted[result.name] = true;\n\n      emit LogStateResult(winner, result.stateSeats, result.name);\n  }\n\n  function currentLeader() public view returns(uint8) {\n      if(seats[BIDEN] > seats[TRUMP]) {\n          return BIDEN;\n      }\n      if(seats[TRUMP] > seats[BIDEN]) {\n          return TRUMP;\n      }\n      return 0;\n  }\n\n  function endElection() public onlyOwner onlyActiveElection {\n      electionEnded = true;\n      emit LogElectionEnded(currentLeader());\n  }\n}",
  "sourcePath": "/Users/steriostaskudis/Desktop/projects/contracts/USElection.sol",
  "compiler": {
    "name": "solc",
    "version": "0.7.0+commit.9e61f92b.Emscripten.clang",
    "optimizer": false,
    "runs": 200
  },
  "schemaVersion": "2.3.5",
  "updatedAt": "2021-06-01T09:57:41.993Z"
}